{
  "_format": "hh-sol-artifact-1",
  "contractName": "MerkleProof",
  "sourceName": "@snowfork/snowbridge-contracts/contracts/utils/MerkleProof.sol",
  "abi": [
    {
      "inputs": [
        {
          "internalType": "bytes32",
          "name": "leaf",
          "type": "bytes32"
        },
        {
          "internalType": "bytes32[]",
          "name": "proof",
          "type": "bytes32[]"
        },
        {
          "internalType": "bool[]",
          "name": "side",
          "type": "bool[]"
        }
      ],
      "name": "computeRootFromProofAndSide",
      "outputs": [
        {
          "internalType": "bytes32",
          "name": "",
          "type": "bytes32"
        }
      ],
      "stateMutability": "pure",
      "type": "function"
    },
    {
      "inputs": [
        {
          "internalType": "bytes32",
          "name": "leaf",
          "type": "bytes32"
        },
        {
          "internalType": "uint256",
          "name": "pos",
          "type": "uint256"
        },
        {
          "internalType": "uint256",
          "name": "width",
          "type": "uint256"
        },
        {
          "internalType": "bytes32[]",
          "name": "proof",
          "type": "bytes32[]"
        }
      ],
      "name": "computeRootFromProofAtPosition",
      "outputs": [
        {
          "internalType": "bytes32",
          "name": "",
          "type": "bytes32"
        }
      ],
      "stateMutability": "pure",
      "type": "function"
    },
    {
      "inputs": [
        {
          "internalType": "bytes32",
          "name": "root",
          "type": "bytes32"
        },
        {
          "internalType": "bytes32",
          "name": "leaf",
          "type": "bytes32"
        },
        {
          "internalType": "uint256",
          "name": "pos",
          "type": "uint256"
        },
        {
          "internalType": "uint256",
          "name": "width",
          "type": "uint256"
        },
        {
          "internalType": "bytes32[]",
          "name": "proof",
          "type": "bytes32[]"
        }
      ],
      "name": "verifyMerkleLeafAtPosition",
      "outputs": [
        {
          "internalType": "bool",
          "name": "",
          "type": "bool"
        }
      ],
      "stateMutability": "pure",
      "type": "function"
    }
  ],
  "bytecode": "0x61064761003a600b82828239805160001a60731461002d57634e487b7160e01b600052600060045260246000fd5b30600052607381538281f3fe730000000000000000000000000000000000000000301460806040526004361061004b5760003560e01c806340752949146100505780636a1b27001461007657806399e179d314610089575b600080fd5b61006361005e36600461050d565b6100ac565b6040519081526020015b60405180910390f35b610063610084366004610429565b6102a2565b61009c6100973660046104a3565b610396565b604051901515815260200161006d565b6000858486106101035760405162461bcd60e51b815260206004820152601b60248201527f4d65726b6c6520706f736974696f6e20697320746f6f2068696768000000000060448201526064015b60405180910390fd5b6000805b600187111561029557600061011d60028a6105bb565b1590508761012c8a600161055d565b1480156101365750805b156101725761014660028a610575565b9850600261015560018a610589565b61015f9190610575565b61016a90600161055d565b975050610283565b8583106101c15760405162461bcd60e51b815260206004820152601960248201527f4d65726b6c652070726f6f6620697320746f6f2073686f72740000000000000060448201526064016100fa565b60008787858181106101d5576101d56105fb565b9050602002013590508115610215576040805160208101879052908101829052606001604051602081830303815290604052805190602001209450610242565b60408051602081018390529081018690526060016040516020818303038152906040528051906020012094505b61024d60028b610575565b9950600261025c60018b610589565b6102669190610575565b61027190600161055d565b98508361027d816105a0565b94505050505b8061028d816105a0565b915050610107565b5090979650505050505050565b600085815b8581101561038b578484828181106102c1576102c16105fb565b90506020020160208101906102d69190610400565b1561032c578686828181106102ed576102ed6105fb565b905060200201358260405160200161030f929190918252602082015260400190565b604051602081830303815290604052805190602001209150610379565b8187878381811061033f5761033f6105fb565b90506020020135604051602001610360929190918252602082015260400190565b6040516020818303038152906040528051906020012091505b80610383816105a0565b9150506102a7565b509695505050505050565b6000806103a687878787876100ac565b909714979650505050505050565b60008083601f8401126103c657600080fd5b50813567ffffffffffffffff8111156103de57600080fd5b6020830191508360208260051b85010111156103f957600080fd5b9250929050565b60006020828403121561041257600080fd5b8135801515811461042257600080fd5b9392505050565b60008060008060006060868803121561044157600080fd5b85359450602086013567ffffffffffffffff8082111561046057600080fd5b61046c89838a016103b4565b9096509450604088013591508082111561048557600080fd5b50610492888289016103b4565b969995985093965092949392505050565b60008060008060008060a087890312156104bc57600080fd5b86359550602087013594506040870135935060608701359250608087013567ffffffffffffffff8111156104ef57600080fd5b6104fb89828a016103b4565b979a9699509497509295939492505050565b60008060008060006080868803121561052557600080fd5b853594506020860135935060408601359250606086013567ffffffffffffffff81111561055157600080fd5b610492888289016103b4565b60008219821115610570576105706105cf565b500190565b600082610584576105846105e5565b500490565b60008282101561059b5761059b6105cf565b500390565b60006000198214156105b4576105b46105cf565b5060010190565b6000826105ca576105ca6105e5565b500690565b634e487b7160e01b600052601160045260246000fd5b634e487b7160e01b600052601260045260246000fd5b634e487b7160e01b600052603260045260246000fdfea264697066735822122007aeff722c2a257f50ed122cdb193f0ae2a459cf6270e356a06ce53fc0b12cca64736f6c63430008060033",
  "linkReferences": {},
  "deployedLinkReferences": {}
}