{
  "_format": "hh-sol-artifact-1",
  "contractName": "BasicInboundChannel",
  "sourceName": "@snowfork/snowbridge-contracts/contracts/BasicInboundChannel.sol",
  "abi": [
    {
      "inputs": [
        {
          "internalType": "contract BeefyLightClient",
          "name": "_beefyLightClient",
          "type": "address"
        }
      ],
      "stateMutability": "nonpayable",
      "type": "constructor"
    },
    {
      "anonymous": false,
      "inputs": [
        {
          "indexed": false,
          "internalType": "uint64",
          "name": "nonce",
          "type": "uint64"
        },
        {
          "indexed": false,
          "internalType": "bool",
          "name": "result",
          "type": "bool"
        }
      ],
      "name": "MessageDispatched",
      "type": "event"
    },
    {
      "inputs": [],
      "name": "GAS_BUFFER",
      "outputs": [
        {
          "internalType": "uint256",
          "name": "",
          "type": "uint256"
        }
      ],
      "stateMutability": "view",
      "type": "function"
    },
    {
      "inputs": [],
      "name": "MAX_GAS_PER_MESSAGE",
      "outputs": [
        {
          "internalType": "uint256",
          "name": "",
          "type": "uint256"
        }
      ],
      "stateMutability": "view",
      "type": "function"
    },
    {
      "inputs": [],
      "name": "beefyLightClient",
      "outputs": [
        {
          "internalType": "contract BeefyLightClient",
          "name": "",
          "type": "address"
        }
      ],
      "stateMutability": "view",
      "type": "function"
    },
    {
      "inputs": [],
      "name": "nonce",
      "outputs": [
        {
          "internalType": "uint64",
          "name": "",
          "type": "uint64"
        }
      ],
      "stateMutability": "view",
      "type": "function"
    },
    {
      "inputs": [
        {
          "components": [
            {
              "internalType": "address",
              "name": "target",
              "type": "address"
            },
            {
              "internalType": "uint64",
              "name": "nonce",
              "type": "uint64"
            },
            {
              "internalType": "bytes",
              "name": "payload",
              "type": "bytes"
            }
          ],
          "internalType": "struct BasicInboundChannel.Message[]",
          "name": "_messages",
          "type": "tuple[]"
        },
        {
          "components": [
            {
              "internalType": "bytes",
              "name": "ownParachainHeadPrefixBytes",
              "type": "bytes"
            },
            {
              "internalType": "bytes",
              "name": "ownParachainHeadSuffixBytes",
              "type": "bytes"
            },
            {
              "components": [
                {
                  "internalType": "uint256",
                  "name": "pos",
                  "type": "uint256"
                },
                {
                  "internalType": "uint256",
                  "name": "width",
                  "type": "uint256"
                },
                {
                  "internalType": "bytes32[]",
                  "name": "proof",
                  "type": "bytes32[]"
                }
              ],
              "internalType": "struct ParachainLightClient.ParachainHeadProof",
              "name": "parachainHeadProof",
              "type": "tuple"
            }
          ],
          "internalType": "struct ParachainLightClient.ParachainVerifyInput",
          "name": "_parachainVerifyInput",
          "type": "tuple"
        },
        {
          "components": [
            {
              "internalType": "uint8",
              "name": "version",
              "type": "uint8"
            },
            {
              "internalType": "uint32",
              "name": "parentNumber",
              "type": "uint32"
            },
            {
              "internalType": "bytes32",
              "name": "parentHash",
              "type": "bytes32"
            },
            {
              "internalType": "uint64",
              "name": "nextAuthoritySetId",
              "type": "uint64"
            },
            {
              "internalType": "uint32",
              "name": "nextAuthoritySetLen",
              "type": "uint32"
            },
            {
              "internalType": "bytes32",
              "name": "nextAuthoritySetRoot",
              "type": "bytes32"
            }
          ],
          "internalType": "struct ParachainLightClient.BeefyMMRLeafPartial",
          "name": "_beefyMMRLeafPartial",
          "type": "tuple"
        },
        {
          "components": [
            {
              "internalType": "bytes32[]",
              "name": "merkleProofItems",
              "type": "bytes32[]"
            },
            {
              "internalType": "uint64",
              "name": "merkleProofOrderBitField",
              "type": "uint64"
            }
          ],
          "internalType": "struct SimplifiedMMRProof",
          "name": "proof",
          "type": "tuple"
        }
      ],
      "name": "submit",
      "outputs": [],
      "stateMutability": "nonpayable",
      "type": "function"
    }
  ],
  "bytecode": "0x608060405234801561001057600080fd5b5060405161100638038061100683398101604081905261002f91610060565b600080546001600160a01b0390921668010000000000000000026001600160e01b0319909216919091179055610090565b60006020828403121561007257600080fd5b81516001600160a01b038116811461008957600080fd5b9392505050565b610f678061009f6000396000f3fe608060405234801561001057600080fd5b50600436106100575760003560e01c80631085473a1461005c57806349bee57414610071578063af41c33e1461008e578063affed0e0146100c5578063c7e67360146100f0575b600080fd5b61006f61006a36600461099a565b6100f9565b005b61007b620186a081565b6040519081526020015b60405180910390f35b6000546100ad906801000000000000000090046001600160a01b031681565b6040516001600160a01b039091168152602001610085565b6000546100d8906001600160401b031681565b6040516001600160401b039091168152602001610085565b61007b61ea6081565b6000858560405160200161010e929190610c33565b60405160208183030381529060405280519060200120905061014881858585600060089054906101000a90046001600160a01b03166101de565b61ea60610158620186a087610ecb565b6101629190610e88565b5a10156101cc5760405162461bcd60e51b815260206004820152602d60248201527f696e73756666696369656e742067617320666f722064656c6976657279206f6660448201526c20616c6c206d6573736167657360981b60648201526084015b60405180910390fd5b6101d6868661039e565b505050505050565b60006102006101ed8680610e22565b886101fb60208a018a610e22565b6105cc565b9050600073__$8357ba4d74636aadcb00db704e14ab264e$__63407529498361022c60408a018a610e68565b3561023a60408b018b610e68565b6020013561024b60408c018c610e68565b610259906040810190610dd2565b6040518663ffffffff1660e01b8152600401610279959493929190610da1565b60206040518083038186803b15801561029157600080fd5b505af41580156102a5573d6000803e3d6000fd5b505050506040513d601f19601f820116820180604052508101906102c99190610ab5565b905060006102d78683610614565b604051631693464f60e11b81529091506001600160a01b03851690632d268c9e906103089084908990600401610d1d565b60206040518083038186803b15801561032057600080fd5b505afa158015610334573d6000803e3d6000fd5b505050506040513d601f19601f820116820180604052508101906103589190610a69565b6103945760405162461bcd60e51b815260206004820152600d60248201526c24b73b30b634b210383937b7b360991b60448201526064016101c3565b5050505050505050565b600080546001600160401b0316905b828110156105a6576103c0826001610ea0565b6001600160401b03168484838181106103db576103db610f1b565b90506020028101906103ed9190610e68565b6103fe906040810190602001610b48565b6001600160401b0316146104445760405162461bcd60e51b815260206004820152600d60248201526c696e76616c6964206e6f6e636560981b60448201526064016101c3565b61044f826001610ea0565b9150600084848381811061046557610465610f1b565b90506020028101906104779190610e68565b610485906020810190610978565b6001600160a01b0316620186a060008787868181106104a6576104a6610f1b565b90506020028101906104b89190610e68565b6104c6906040810190610e22565b6040516104d4929190610c23565b600060405180830381858888f193505050503d8060008114610512576040519150601f19603f3d011682016040523d82523d6000602084013e610517565b606091505b505090507f504b093d860dc827c72a879d052fd8ac6b4c2af80c5f3a634654f172690bf10a85858481811061054e5761054e610f1b565b90506020028101906105609190610e68565b610571906040810190602001610b48565b604080516001600160401b03909216825283151560208301520160405180910390a1508061059e81610eea565b9150506103ad565b506000805467ffffffffffffffff19166001600160401b03929092169190911790555050565b60008063e803000060e01b87878787876040516020016105f196959493929190610be5565b60408051808303601f190181529190528051602090910120979650505050505050565b60008073__$276cc14ce47cc15bfe88c6e1cbd14dec7e$__6353fae67461063e6020870187610b63565b6040516001600160e01b031960e084901b16815260ff909116600482015260240160206040518083038186803b15801561067757600080fd5b505af415801561068b573d6000803e3d6000fd5b505050506040513d601f19601f820116820180604052508101906106af9190610a8b565b73__$276cc14ce47cc15bfe88c6e1cbd14dec7e$__63381f760d6106d96040880160208901610b22565b6040516001600160e01b031960e084901b16815263ffffffff91909116600482015260240160206040518083038186803b15801561071657600080fd5b505af415801561072a573d6000803e3d6000fd5b505050506040513d601f19601f8201168201806040525081019061074e9190610ace565b604086013573__$276cc14ce47cc15bfe88c6e1cbd14dec7e$__63f83d7d5f61077d60808a0160608b01610b48565b6040516001600160e01b031960e084901b1681526001600160401b03909116600482015260240160206040518083038186803b1580156107bc57600080fd5b505af41580156107d0573d6000803e3d6000fd5b505050506040513d601f19601f820116820180604052508101906107f49190610af8565b73__$276cc14ce47cc15bfe88c6e1cbd14dec7e$__63381f760d61081e60a08b0160808c01610b22565b6040516001600160e01b031960e084901b16815263ffffffff91909116600482015260240160206040518083038186803b15801561085b57600080fd5b505af415801561086f573d6000803e3d6000fd5b505050506040513d601f19601f820116820180604052508101906108939190610ace565b6040516001600160f81b031990951660208601526001600160e01b0319938416602186015260258501929092526001600160c01b031916604584015216604d82015260a085013560518201526071810184905260910160408051808303601f190181529190528051602090910120949350505050565b80356001600160a01b038116811461092057600080fd5b919050565b600060c0828403121561093757600080fd5b50919050565b60006060828403121561093757600080fd5b60006040828403121561093757600080fd5b80356001600160401b038116811461092057600080fd5b60006020828403121561098a57600080fd5b61099382610909565b9392505050565b600080600080600061012086880312156109b357600080fd5b85356001600160401b03808211156109ca57600080fd5b818801915088601f8301126109de57600080fd5b8135818111156109ed57600080fd5b8960208260051b8501011115610a0257600080fd5b602092830197509550908701359080821115610a1d57600080fd5b610a2989838a0161093d565b9450610a388960408a01610925565b9350610100880135915080821115610a4f57600080fd5b50610a5c8882890161094f565b9150509295509295909350565b600060208284031215610a7b57600080fd5b8151801515811461099357600080fd5b600060208284031215610a9d57600080fd5b81516001600160f81b03198116811461099357600080fd5b600060208284031215610ac757600080fd5b5051919050565b600060208284031215610ae057600080fd5b81516001600160e01b03198116811461099357600080fd5b600060208284031215610b0a57600080fd5b81516001600160c01b03198116811461099357600080fd5b600060208284031215610b3457600080fd5b813563ffffffff8116811461099357600080fd5b600060208284031215610b5a57600080fd5b61099382610961565b600060208284031215610b7557600080fd5b813560ff8116811461099357600080fd5b81835260006001600160fb1b03831115610b9f57600080fd5b8260051b8083602087013760009401602001938452509192915050565b81835281816020850137506000828201602090810191909152601f909101601f19169091010190565b6001600160e01b0319871681528486600483013784810160048101859052600090838560248301376000930160240192835250909695505050505050565b8183823760009101908152919050565b60208082528181018390526000906040808401600586901b8501820187855b88811015610d0f57878303603f190184528135368b9003605e19018112610c7857600080fd5b8a0160606001600160a01b03610c8d83610909565b168552610c9b888301610961565b6001600160401b03908116868a0152828801359036849003601e19018212610cc257600080fd5b90830190813581811115610cd557600080fd5b803603851315610ce457600080fd5b838a890152610cf8848901828d8601610bbc565b988b01989750505093880193505050600101610c52565b509098975050505050505050565b8281526040602082015260008235601e19843603018112610d3d57600080fd5b830180356001600160401b0380821115610d5657600080fd5b8160051b3603861315610d6857600080fd5b604080860152610d7f608086018360208601610b86565b925080610d8e60208801610961565b1660608601525050809150509392505050565b858152846020820152836040820152608060608201526000610dc7608083018486610b86565b979650505050505050565b6000808335601e19843603018112610de957600080fd5b8301803591506001600160401b03821115610e0357600080fd5b6020019150600581901b3603821315610e1b57600080fd5b9250929050565b6000808335601e19843603018112610e3957600080fd5b8301803591506001600160401b03821115610e5357600080fd5b602001915036819003821315610e1b57600080fd5b60008235605e19833603018112610e7e57600080fd5b9190910192915050565b60008219821115610e9b57610e9b610f05565b500190565b60006001600160401b03808316818516808303821115610ec257610ec2610f05565b01949350505050565b6000816000190483118215151615610ee557610ee5610f05565b500290565b6000600019821415610efe57610efe610f05565b5060010190565b634e487b7160e01b600052601160045260246000fd5b634e487b7160e01b600052603260045260246000fdfea264697066735822122091e67c92fdd1f4f2dccbe13b2df4121a1830c7f32ef6bb0bf3c2ec01fa71808e64736f6c63430008060033",
  "linkReferences": {
    "@snowfork/snowbridge-contracts/contracts/ScaleCodec.sol": {
      "ScaleCodec": [
        {
          "length": 20,
          "start": 1720
        },
        {
          "length": 20,
          "start": 1872
        },
        {
          "length": 20,
          "start": 2036
        },
        {
          "length": 20,
          "start": 2197
        }
      ]
    },
    "@snowfork/snowbridge-contracts/contracts/utils/MerkleProof.sol": {
      "MerkleProof": [
        {
          "length": 20,
          "start": 677
        }
      ]
    }
  },
  "deployedLinkReferences": {
    "@snowfork/snowbridge-contracts/contracts/ScaleCodec.sol": {
      "ScaleCodec": [
        {
          "length": 20,
          "start": 1561
        },
        {
          "length": 20,
          "start": 1713
        },
        {
          "length": 20,
          "start": 1877
        },
        {
          "length": 20,
          "start": 2038
        }
      ]
    },
    "@snowfork/snowbridge-contracts/contracts/utils/MerkleProof.sol": {
      "MerkleProof": [
        {
          "length": 20,
          "start": 518
        }
      ]
    }
  }
}