{
  "_format": "hh-sol-artifact-1",
  "contractName": "MockOutboundChannel",
  "sourceName": "contracts/test/MockOutboundChannel.sol",
  "abi": [
    {
      "anonymous": false,
      "inputs": [
        {
          "indexed": false,
          "internalType": "address",
          "name": "source",
          "type": "address"
        },
        {
          "indexed": false,
          "internalType": "bytes",
          "name": "data",
          "type": "bytes"
        }
      ],
      "name": "Message",
      "type": "event"
    },
    {
      "inputs": [
        {
          "internalType": "address",
          "name": "",
          "type": "address"
        },
        {
          "internalType": "bytes",
          "name": "data",
          "type": "bytes"
        }
      ],
      "name": "submit",
      "outputs": [],
      "stateMutability": "nonpayable",
      "type": "function"
    }
  ],
  "bytecode": "0x608060405234801561001057600080fd5b5061018c806100206000396000f3fe608060405234801561001057600080fd5b506004361061002b5760003560e01c806376846edd14610030575b600080fd5b61004361003e366004610085565b610045565b005b7f935d94aae9382068e7d866bd9757ae81fa3c669c900ef3e1f16039fde798ed6933838360405161007893929190610116565b60405180910390a1505050565b60008060006040848603121561009a57600080fd5b83356001600160a01b03811681146100b157600080fd5b9250602084013567ffffffffffffffff808211156100ce57600080fd5b818601915086601f8301126100e257600080fd5b8135818111156100f157600080fd5b87602082850101111561010357600080fd5b6020830194508093505050509250925092565b6001600160a01b03841681526040602082018190528101829052818360608301376000818301606090810191909152601f909201601f191601019291505056fea2646970667358221220d9924aa2d1c1e26e97008aa73a09ba2db389a0998fc0dd97ccb44c59ff08e17b64736f6c63430008060033",
  "linkReferences": {},
  "deployedLinkReferences": {}
}