{
  "_format": "hh-sol-artifact-1",
  "contractName": "ERC721App",
  "sourceName": "contracts/ERC721App.sol",
  "abi": [
    {
      "inputs": [
        {
          "components": [
            {
              "internalType": "address",
              "name": "inbound",
              "type": "address"
            },
            {
              "internalType": "address",
              "name": "outbound",
              "type": "address"
            }
          ],
          "internalType": "struct ERC721App.Channel",
          "name": "_basic",
          "type": "tuple"
        },
        {
          "components": [
            {
              "internalType": "address",
              "name": "inbound",
              "type": "address"
            },
            {
              "internalType": "address",
              "name": "outbound",
              "type": "address"
            }
          ],
          "internalType": "struct ERC721App.Channel",
          "name": "_incentivized",
          "type": "tuple"
        }
      ],
      "stateMutability": "nonpayable",
      "type": "constructor"
    },
    {
      "anonymous": false,
      "inputs": [
        {
          "indexed": false,
          "internalType": "address",
          "name": "tokenContract",
          "type": "address"
        },
        {
          "indexed": false,
          "internalType": "uint256",
          "name": "tokenId",
          "type": "uint256"
        },
        {
          "indexed": false,
          "internalType": "address",
          "name": "sender",
          "type": "address"
        },
        {
          "indexed": false,
          "internalType": "bytes32",
          "name": "recipient",
          "type": "bytes32"
        }
      ],
      "name": "Locked",
      "type": "event"
    },
    {
      "anonymous": false,
      "inputs": [
        {
          "indexed": true,
          "internalType": "bytes32",
          "name": "role",
          "type": "bytes32"
        },
        {
          "indexed": true,
          "internalType": "bytes32",
          "name": "previousAdminRole",
          "type": "bytes32"
        },
        {
          "indexed": true,
          "internalType": "bytes32",
          "name": "newAdminRole",
          "type": "bytes32"
        }
      ],
      "name": "RoleAdminChanged",
      "type": "event"
    },
    {
      "anonymous": false,
      "inputs": [
        {
          "indexed": true,
          "internalType": "bytes32",
          "name": "role",
          "type": "bytes32"
        },
        {
          "indexed": true,
          "internalType": "address",
          "name": "account",
          "type": "address"
        },
        {
          "indexed": true,
          "internalType": "address",
          "name": "sender",
          "type": "address"
        }
      ],
      "name": "RoleGranted",
      "type": "event"
    },
    {
      "anonymous": false,
      "inputs": [
        {
          "indexed": true,
          "internalType": "bytes32",
          "name": "role",
          "type": "bytes32"
        },
        {
          "indexed": true,
          "internalType": "address",
          "name": "account",
          "type": "address"
        },
        {
          "indexed": true,
          "internalType": "address",
          "name": "sender",
          "type": "address"
        }
      ],
      "name": "RoleRevoked",
      "type": "event"
    },
    {
      "anonymous": false,
      "inputs": [
        {
          "indexed": false,
          "internalType": "address",
          "name": "tokenContract",
          "type": "address"
        },
        {
          "indexed": false,
          "internalType": "uint256",
          "name": "tokenId",
          "type": "uint256"
        },
        {
          "indexed": false,
          "internalType": "bytes32",
          "name": "sender",
          "type": "bytes32"
        },
        {
          "indexed": false,
          "internalType": "address",
          "name": "recipient",
          "type": "address"
        }
      ],
      "name": "Unlocked",
      "type": "event"
    },
    {
      "anonymous": false,
      "inputs": [
        {
          "indexed": false,
          "internalType": "address",
          "name": "upgrader",
          "type": "address"
        },
        {
          "components": [
            {
              "internalType": "address",
              "name": "inbound",
              "type": "address"
            },
            {
              "internalType": "address",
              "name": "outbound",
              "type": "address"
            }
          ],
          "indexed": false,
          "internalType": "struct ERC721App.Channel",
          "name": "basic",
          "type": "tuple"
        },
        {
          "components": [
            {
              "internalType": "address",
              "name": "inbound",
              "type": "address"
            },
            {
              "internalType": "address",
              "name": "outbound",
              "type": "address"
            }
          ],
          "indexed": false,
          "internalType": "struct ERC721App.Channel",
          "name": "incentivized",
          "type": "tuple"
        }
      ],
      "name": "Upgraded",
      "type": "event"
    },
    {
      "inputs": [],
      "name": "CHANNEL_UPGRADE_ROLE",
      "outputs": [
        {
          "internalType": "bytes32",
          "name": "",
          "type": "bytes32"
        }
      ],
      "stateMutability": "view",
      "type": "function"
    },
    {
      "inputs": [],
      "name": "DEFAULT_ADMIN_ROLE",
      "outputs": [
        {
          "internalType": "bytes32",
          "name": "",
          "type": "bytes32"
        }
      ],
      "stateMutability": "view",
      "type": "function"
    },
    {
      "inputs": [],
      "name": "INBOUND_CHANNEL_ROLE",
      "outputs": [
        {
          "internalType": "bytes32",
          "name": "",
          "type": "bytes32"
        }
      ],
      "stateMutability": "view",
      "type": "function"
    },
    {
      "inputs": [
        {
          "internalType": "enum ChannelId",
          "name": "",
          "type": "uint8"
        }
      ],
      "name": "channels",
      "outputs": [
        {
          "internalType": "address",
          "name": "inbound",
          "type": "address"
        },
        {
          "internalType": "address",
          "name": "outbound",
          "type": "address"
        }
      ],
      "stateMutability": "view",
      "type": "function"
    },
    {
      "inputs": [
        {
          "internalType": "bytes32",
          "name": "role",
          "type": "bytes32"
        }
      ],
      "name": "getRoleAdmin",
      "outputs": [
        {
          "internalType": "bytes32",
          "name": "",
          "type": "bytes32"
        }
      ],
      "stateMutability": "view",
      "type": "function"
    },
    {
      "inputs": [
        {
          "internalType": "bytes32",
          "name": "role",
          "type": "bytes32"
        },
        {
          "internalType": "address",
          "name": "account",
          "type": "address"
        }
      ],
      "name": "grantRole",
      "outputs": [],
      "stateMutability": "nonpayable",
      "type": "function"
    },
    {
      "inputs": [
        {
          "internalType": "bytes32",
          "name": "role",
          "type": "bytes32"
        },
        {
          "internalType": "address",
          "name": "account",
          "type": "address"
        }
      ],
      "name": "hasRole",
      "outputs": [
        {
          "internalType": "bool",
          "name": "",
          "type": "bool"
        }
      ],
      "stateMutability": "view",
      "type": "function"
    },
    {
      "inputs": [
        {
          "internalType": "address",
          "name": "_tokenContract",
          "type": "address"
        },
        {
          "internalType": "uint256",
          "name": "_tokenId",
          "type": "uint256"
        },
        {
          "internalType": "bytes32",
          "name": "_recipient",
          "type": "bytes32"
        },
        {
          "internalType": "enum ChannelId",
          "name": "_channelId",
          "type": "uint8"
        }
      ],
      "name": "lock",
      "outputs": [],
      "stateMutability": "payable",
      "type": "function"
    },
    {
      "inputs": [
        {
          "internalType": "bytes32",
          "name": "role",
          "type": "bytes32"
        },
        {
          "internalType": "address",
          "name": "account",
          "type": "address"
        }
      ],
      "name": "renounceRole",
      "outputs": [],
      "stateMutability": "nonpayable",
      "type": "function"
    },
    {
      "inputs": [
        {
          "internalType": "bytes32",
          "name": "role",
          "type": "bytes32"
        },
        {
          "internalType": "address",
          "name": "account",
          "type": "address"
        }
      ],
      "name": "revokeRole",
      "outputs": [],
      "stateMutability": "nonpayable",
      "type": "function"
    },
    {
      "inputs": [
        {
          "internalType": "bytes4",
          "name": "interfaceId",
          "type": "bytes4"
        }
      ],
      "name": "supportsInterface",
      "outputs": [
        {
          "internalType": "bool",
          "name": "",
          "type": "bool"
        }
      ],
      "stateMutability": "view",
      "type": "function"
    },
    {
      "inputs": [
        {
          "internalType": "address",
          "name": "_tokenContract",
          "type": "address"
        },
        {
          "internalType": "uint256",
          "name": "_tokenId",
          "type": "uint256"
        },
        {
          "internalType": "bytes32",
          "name": "_sender",
          "type": "bytes32"
        },
        {
          "internalType": "address",
          "name": "_recipient",
          "type": "address"
        }
      ],
      "name": "unlock",
      "outputs": [],
      "stateMutability": "nonpayable",
      "type": "function"
    },
    {
      "inputs": [
        {
          "components": [
            {
              "internalType": "address",
              "name": "inbound",
              "type": "address"
            },
            {
              "internalType": "address",
              "name": "outbound",
              "type": "address"
            }
          ],
          "internalType": "struct ERC721App.Channel",
          "name": "_basic",
          "type": "tuple"
        },
        {
          "components": [
            {
              "internalType": "address",
              "name": "inbound",
              "type": "address"
            },
            {
              "internalType": "address",
              "name": "outbound",
              "type": "address"
            }
          ],
          "internalType": "struct ERC721App.Channel",
          "name": "_incentivized",
          "type": "tuple"
        }
      ],
      "name": "upgrade",
      "outputs": [],
      "stateMutability": "nonpayable",
      "type": "function"
    }
  ],
  "bytecode": "0x60806040523480156200001157600080fd5b506040516200160b3803806200160b83398101604081905262000034916200034d565b60008080526001602081815284517fa6eef7e35abe7026729641147f7915573c7e97b47efa546f5f6e3230263bcb4980546001600160a01b03199081166001600160a01b03938416178255878401517fa6eef7e35abe7026729641147f7915573c7e97b47efa546f5f6e3230263bcb4a805483169185169190911790559390945284517fcc69885fda6bcc1a4ace058b4a62bf5e179ea78fd58a1ccd71c22cc9b688792f80548516918316919091178155918501517fcc69885fda6bcc1a4ace058b4a62bf5e179ea78fd58a1ccd71c22cc9b6887930805490941691161790915562000130600080516020620015eb83398151915233620001bb565b6200015a600080516020620015cb833981519152600080516020620015eb833981519152620001cb565b62000175600080516020620015eb83398151915280620001cb565b83516200019390600080516020620015cb83398151915290620001bb565b8251620001b190600080516020620015cb83398151915290620001bb565b5050505062000387565b620001c782826200021f565b5050565b600082815260208190526040902060010154819060405184907fbd79b86ffe0ab8e8776151514217cd7cacd52c909f66475c3af44e129f0b00ff90600090a460009182526020829052604090912060010155565b6000828152602081815260408083206001600160a01b038516845290915290205460ff16620001c7576000828152602081815260408083206001600160a01b03851684529091529020805460ff191660011790556200027b3390565b6001600160a01b0316816001600160a01b0316837f2f8788117e7eff1d82e926ec794901d17c78024a50270940304540a733656f0d60405160405180910390a45050565b80516001600160a01b0381168114620002d757600080fd5b919050565b600060408284031215620002ef57600080fd5b604080519081016001600160401b03811182821017156200032057634e487b7160e01b600052604160045260246000fd5b6040529050806200033183620002bf565b81526200034160208401620002bf565b60208201525092915050565b600080608083850312156200036157600080fd5b6200036d8484620002dc565b91506200037e8460408501620002dc565b90509250929050565b61123480620003976000396000f3fe6080604052600436106100c25760003560e01c80638caff9601161007f578063bc0c22a711610059578063bc0c22a714610204578063ccd3413214610226578063d547741f14610287578063fdc16229146102a757600080fd5b80638caff960146101af57806391d14854146101cf578063a217fddf146101ef57600080fd5b806301ffc9a7146100c7578063248a9ca3146100fc5780632f2ff15d1461013a57806336568abe1461015c5780636677e6de1461017c57806371ac2bb61461018f575b600080fd5b3480156100d357600080fd5b506100e76100e2366004610e58565b6102db565b60405190151581526020015b60405180910390f35b34801561010857600080fd5b5061012c610117366004610dfa565b60009081526020819052604090206001015490565b6040519081526020016100f3565b34801561014657600080fd5b5061015a610155366004610e2c565b610312565b005b34801561016857600080fd5b5061015a610177366004610e2c565b61033d565b61015a61018a366004610dbf565b6103c0565b34801561019b57600080fd5b5061015a6101aa366004610f4a565b610627565b3480156101bb57600080fd5b5061015a6101ca366004610d79565b6107b5565b3480156101db57600080fd5b506100e76101ea366004610e2c565b610893565b3480156101fb57600080fd5b5061012c600081565b34801561021057600080fd5b5061012c6000805160206111df83398151915281565b34801561023257600080fd5b50610267610241366004610e82565b600160208190526000918252604090912080549101546001600160a01b03918216911682565b604080516001600160a01b039384168152929091166020830152016100f3565b34801561029357600080fd5b5061015a6102a2366004610e2c565b6108bc565b3480156102b357600080fd5b5061012c7f9bac3bf563d906e4c002c9b37dc34326776a9168ece7376a7a577f98c0c99a8981565b60006001600160e01b03198216637965db0b60e01b148061030c57506301ffc9a760e01b6001600160e01b03198316145b92915050565b60008281526020819052604090206001015461032e81336108e2565b6103388383610946565b505050565b6001600160a01b03811633146103b25760405162461bcd60e51b815260206004820152602f60248201527f416363657373436f6e74726f6c3a2063616e206f6e6c792072656e6f756e636560448201526e103937b632b9903337b91039b2b63360891b60648201526084015b60405180910390fd5b6103bc82826109ca565b5050565b60008160018111156103d4576103d461119c565b14806103f1575060018160018111156103ef576103ef61119c565b145b6104325760405162461bcd60e51b8152602060048201526012602482015271125b9d985b1a590818da185b9b995b08125160721b60448201526064016103a9565b604080516001600160a01b038616815260208101859052338183015260608101849052905185917ff9e8f47bd010f225f3d63194767d1bfd468e2bbf8dd0cf3a9eda77b64fd64f59919081900360800190a1600061051486863387866001600160a01b031663c87b56dd8b6040518263ffffffff1660e01b81526004016104bb91815260200190565b60006040518083038186803b1580156104d357600080fd5b505afa1580156104e7573d6000803e3d6000fd5b505050506040513d6000823e601f3d908101601f1916820160405261050f9190810190610e9d565b610a2f565b905060006001600085600181111561052e5761052e61119c565b600181111561053f5761053f61119c565b8152602081019190915260409081016000206001015490516376846edd60e01b81526001600160a01b03909116915081906376846edd90610586903390869060040161108b565b600060405180830381600087803b1580156105a057600080fd5b505af11580156105b4573d6000803e3d6000fd5b50506040516323b872dd60e01b8152336004820152306024820152604481018990526001600160a01b03861692506323b872dd9150606401600060405180830381600087803b15801561060657600080fd5b505af115801561061a573d6000803e3d6000fd5b5050505050505050505050565b7f9bac3bf563d906e4c002c9b37dc34326776a9168ece7376a7a577f98c0c99a8961065281336108e2565b600160208190526000527fa6eef7e35abe7026729641147f7915573c7e97b47efa546f5f6e3230263bcb4980547fcc69885fda6bcc1a4ace058b4a62bf5e179ea78fd58a1ccd71c22cc9b688792f906106c3906000805160206111df833981519152906001600160a01b03166108bc565b80546106e7906000805160206111df833981519152906001600160a01b03166108bc565b845182546001600160a01b03199081166001600160a01b03808416919091178555602080890151600180880180548616928516929092179091558851865485169084161786559088015190850180549093169116179055610757906000805160206111df83398151915290610312565b6107736000805160206111df8339815191528560000151610312565b7f30f77c97dcde9bb66d94051acfc00bf7cc5b681a05081da244812234f00374903383836040516107a6939291906110b7565b60405180910390a15050505050565b6000805160206111df8339815191526107ce81336108e2565b6040516323b872dd60e01b81523060048201526001600160a01b038381166024830152604482018690528691908216906323b872dd90606401600060405180830381600087803b15801561082157600080fd5b505af1158015610835573d6000803e3d6000fd5b5050604080516001600160a01b038a81168252602082018a90528183018990528716606082015290517f91866269a07005261072e1fab91b423eb26cdd847fb0bdfe460aaff27fbc2d759350908190036080019150a1505050505050565b6000918252602082815260408084206001600160a01b0393909316845291905290205460ff1690565b6000828152602081905260409020600101546108d881336108e2565b61033883836109ca565b6108ec8282610893565b6103bc57610904816001600160a01b03166014610b4d565b61090f836020610b4d565b604051602001610920929190611016565b60408051601f198184030181529082905262461bcd60e51b82526103a9916004016110f5565b6109508282610893565b6103bc576000828152602081815260408083206001600160a01b03851684529091529020805460ff191660011790556109863390565b6001600160a01b0316816001600160a01b0316837f2f8788117e7eff1d82e926ec794901d17c78024a50270940304540a733656f0d60405160405180910390a45050565b6109d48282610893565b156103bc576000828152602081815260408083206001600160a01b0385168085529252808320805460ff1916905551339285917ff6391f5c32d9c69d2a47ea670b442974b53935d1edc7fd64eb21e047a839171b9190a45050565b604051606084811b6bffffffffffffffffffffffff191660208301529061430160f01b9060340160408051601f19818403018152908290526bffffffffffffffffffffffff1960608a901b16602083015290600090869060340160408051808303601f1901815290829052636fea3f0760e11b8252600482018b90529073__$276cc14ce47cc15bfe88c6e1cbd14dec7e$__9063dfd47e0e9060240160206040518083038186803b158015610ae357600080fd5b505af4158015610af7573d6000803e3d6000fd5b505050506040513d601f19601f82011682018060405250810190610b1b9190610e13565b604051610b3396959493929190600090602001610fa2565b604051602081830303815290604052905095945050505050565b60606000610b5c836002611120565b610b67906002611108565b67ffffffffffffffff811115610b7f57610b7f6111c8565b6040519080825280601f01601f191660200182016040528015610ba9576020820181803683370190505b509050600360fc1b81600081518110610bc457610bc46111b2565b60200101906001600160f81b031916908160001a905350600f60fb1b81600181518110610bf357610bf36111b2565b60200101906001600160f81b031916908160001a9053506000610c17846002611120565b610c22906001611108565b90505b6001811115610c9a576f181899199a1a9b1b9c1cb0b131b232b360811b85600f1660108110610c5657610c566111b2565b1a60f81b828281518110610c6c57610c6c6111b2565b60200101906001600160f81b031916908160001a90535060049490941c93610c938161116f565b9050610c25565b508315610ce95760405162461bcd60e51b815260206004820181905260248201527f537472696e67733a20686578206c656e67746820696e73756666696369656e7460448201526064016103a9565b9392505050565b80356001600160a01b0381168114610d0757600080fd5b919050565b803560028110610d0757600080fd5b600060408284031215610d2d57600080fd5b6040516040810181811067ffffffffffffffff82111715610d5057610d506111c8565b604052905080610d5f83610cf0565b8152610d6d60208401610cf0565b60208201525092915050565b60008060008060808587031215610d8f57600080fd5b610d9885610cf0565b93506020850135925060408501359150610db460608601610cf0565b905092959194509250565b60008060008060808587031215610dd557600080fd5b610dde85610cf0565b93506020850135925060408501359150610db460608601610d0c565b600060208284031215610e0c57600080fd5b5035919050565b600060208284031215610e2557600080fd5b5051919050565b60008060408385031215610e3f57600080fd5b82359150610e4f60208401610cf0565b90509250929050565b600060208284031215610e6a57600080fd5b81356001600160e01b031981168114610ce957600080fd5b600060208284031215610e9457600080fd5b610ce982610d0c565b600060208284031215610eaf57600080fd5b815167ffffffffffffffff80821115610ec757600080fd5b818401915084601f830112610edb57600080fd5b815181811115610eed57610eed6111c8565b604051601f8201601f19908116603f01168101908382118183101715610f1557610f156111c8565b81604052828152876020848701011115610f2e57600080fd5b610f3f83602083016020880161113f565b979650505050505050565b60008060808385031215610f5d57600080fd5b610f678484610d1b565b9150610e4f8460408501610d1b565b60008151808452610f8e81602086016020860161113f565b601f01601f19169290920160200192915050565b6001600160f01b0319881681528651600090610fc5816002850160208c0161113f565b6001600160f81b0319888116600292850192830152600382018890528651610ff4816023850160208b0161113f565b6023920191820195909552929093166043830152506044019695505050505050565b7f416363657373436f6e74726f6c3a206163636f756e742000000000000000000081526000835161104e81601785016020880161113f565b7001034b99036b4b9b9b4b733903937b6329607d1b601791840191820152835161107f81602884016020880161113f565b01602801949350505050565b6001600160a01b03831681526040602082018190526000906110af90830184610f76565b949350505050565b6001600160a01b0384811682528354811660208301526001808501548216604084015283548216606084015283015416608082015260a081016110af565b602081526000610ce96020830184610f76565b6000821982111561111b5761111b611186565b500190565b600081600019048311821515161561113a5761113a611186565b500290565b60005b8381101561115a578181015183820152602001611142565b83811115611169576000848401525b50505050565b60008161117e5761117e611186565b506000190190565b634e487b7160e01b600052601160045260246000fd5b634e487b7160e01b600052602160045260246000fd5b634e487b7160e01b600052603260045260246000fd5b634e487b7160e01b600052604160045260246000fdfef857e99667b61d9feb64d6cb140ba8a8ba3501d58a4940223c8e74c45932fbf4a2646970667358221220c6722a224eb35267a01ea289a9ae35283e437bec6252bd1fa08dca62c847a3a964736f6c63430008060033f857e99667b61d9feb64d6cb140ba8a8ba3501d58a4940223c8e74c45932fbf49bac3bf563d906e4c002c9b37dc34326776a9168ece7376a7a577f98c0c99a89",
  "linkReferences": {
    "@snowfork/snowbridge-contracts/contracts/ScaleCodec.sol": {
      "ScaleCodec": [
        {
          "length": 20,
          "start": 3653
        }
      ]
    }
  },
  "deployedLinkReferences": {
    "@snowfork/snowbridge-contracts/contracts/ScaleCodec.sol": {
      "ScaleCodec": [
        {
          "length": 20,
          "start": 2734
        }
      ]
    }
  }
}