{
  "_format": "hh-sol-artifact-1",
  "contractName": "WrappedToken",
  "sourceName": "@snowfork/snowbridge-contracts/contracts/WrappedToken.sol",
  "abi": [
    {
      "inputs": [
        {
          "internalType": "string",
          "name": "_name",
          "type": "string"
        },
        {
          "internalType": "string",
          "name": "_symbol",
          "type": "string"
        },
        {
          "internalType": "address[]",
          "name": "_defaultOperators",
          "type": "address[]"
        }
      ],
      "stateMutability": "nonpayable",
      "type": "constructor"
    },
    {
      "anonymous": false,
      "inputs": [
        {
          "indexed": true,
          "internalType": "address",
          "name": "owner",
          "type": "address"
        },
        {
          "indexed": true,
          "internalType": "address",
          "name": "spender",
          "type": "address"
        },
        {
          "indexed": false,
          "internalType": "uint256",
          "name": "value",
          "type": "uint256"
        }
      ],
      "name": "Approval",
      "type": "event"
    },
    {
      "anonymous": false,
      "inputs": [
        {
          "indexed": true,
          "internalType": "address",
          "name": "operator",
          "type": "address"
        },
        {
          "indexed": true,
          "internalType": "address",
          "name": "tokenHolder",
          "type": "address"
        }
      ],
      "name": "AuthorizedOperator",
      "type": "event"
    },
    {
      "anonymous": false,
      "inputs": [
        {
          "indexed": true,
          "internalType": "address",
          "name": "operator",
          "type": "address"
        },
        {
          "indexed": true,
          "internalType": "address",
          "name": "from",
          "type": "address"
        },
        {
          "indexed": false,
          "internalType": "uint256",
          "name": "amount",
          "type": "uint256"
        },
        {
          "indexed": false,
          "internalType": "bytes",
          "name": "data",
          "type": "bytes"
        },
        {
          "indexed": false,
          "internalType": "bytes",
          "name": "operatorData",
          "type": "bytes"
        }
      ],
      "name": "Burned",
      "type": "event"
    },
    {
      "anonymous": false,
      "inputs": [
        {
          "indexed": true,
          "internalType": "address",
          "name": "operator",
          "type": "address"
        },
        {
          "indexed": true,
          "internalType": "address",
          "name": "to",
          "type": "address"
        },
        {
          "indexed": false,
          "internalType": "uint256",
          "name": "amount",
          "type": "uint256"
        },
        {
          "indexed": false,
          "internalType": "bytes",
          "name": "data",
          "type": "bytes"
        },
        {
          "indexed": false,
          "internalType": "bytes",
          "name": "operatorData",
          "type": "bytes"
        }
      ],
      "name": "Minted",
      "type": "event"
    },
    {
      "anonymous": false,
      "inputs": [
        {
          "indexed": true,
          "internalType": "address",
          "name": "previousOwner",
          "type": "address"
        },
        {
          "indexed": true,
          "internalType": "address",
          "name": "newOwner",
          "type": "address"
        }
      ],
      "name": "OwnershipTransferred",
      "type": "event"
    },
    {
      "anonymous": false,
      "inputs": [
        {
          "indexed": true,
          "internalType": "address",
          "name": "operator",
          "type": "address"
        },
        {
          "indexed": true,
          "internalType": "address",
          "name": "tokenHolder",
          "type": "address"
        }
      ],
      "name": "RevokedOperator",
      "type": "event"
    },
    {
      "anonymous": false,
      "inputs": [
        {
          "indexed": true,
          "internalType": "address",
          "name": "operator",
          "type": "address"
        },
        {
          "indexed": true,
          "internalType": "address",
          "name": "from",
          "type": "address"
        },
        {
          "indexed": true,
          "internalType": "address",
          "name": "to",
          "type": "address"
        },
        {
          "indexed": false,
          "internalType": "uint256",
          "name": "amount",
          "type": "uint256"
        },
        {
          "indexed": false,
          "internalType": "bytes",
          "name": "data",
          "type": "bytes"
        },
        {
          "indexed": false,
          "internalType": "bytes",
          "name": "operatorData",
          "type": "bytes"
        }
      ],
      "name": "Sent",
      "type": "event"
    },
    {
      "anonymous": false,
      "inputs": [
        {
          "indexed": true,
          "internalType": "address",
          "name": "from",
          "type": "address"
        },
        {
          "indexed": true,
          "internalType": "address",
          "name": "to",
          "type": "address"
        },
        {
          "indexed": false,
          "internalType": "uint256",
          "name": "value",
          "type": "uint256"
        }
      ],
      "name": "Transfer",
      "type": "event"
    },
    {
      "inputs": [
        {
          "internalType": "address",
          "name": "holder",
          "type": "address"
        },
        {
          "internalType": "address",
          "name": "spender",
          "type": "address"
        }
      ],
      "name": "allowance",
      "outputs": [
        {
          "internalType": "uint256",
          "name": "",
          "type": "uint256"
        }
      ],
      "stateMutability": "view",
      "type": "function"
    },
    {
      "inputs": [
        {
          "internalType": "address",
          "name": "spender",
          "type": "address"
        },
        {
          "internalType": "uint256",
          "name": "value",
          "type": "uint256"
        }
      ],
      "name": "approve",
      "outputs": [
        {
          "internalType": "bool",
          "name": "",
          "type": "bool"
        }
      ],
      "stateMutability": "nonpayable",
      "type": "function"
    },
    {
      "inputs": [
        {
          "internalType": "address",
          "name": "operator",
          "type": "address"
        }
      ],
      "name": "authorizeOperator",
      "outputs": [],
      "stateMutability": "nonpayable",
      "type": "function"
    },
    {
      "inputs": [
        {
          "internalType": "address",
          "name": "tokenHolder",
          "type": "address"
        }
      ],
      "name": "balanceOf",
      "outputs": [
        {
          "internalType": "uint256",
          "name": "",
          "type": "uint256"
        }
      ],
      "stateMutability": "view",
      "type": "function"
    },
    {
      "inputs": [
        {
          "internalType": "address",
          "name": "sender",
          "type": "address"
        },
        {
          "internalType": "uint256",
          "name": "amount",
          "type": "uint256"
        },
        {
          "internalType": "bytes",
          "name": "data",
          "type": "bytes"
        }
      ],
      "name": "burn",
      "outputs": [],
      "stateMutability": "nonpayable",
      "type": "function"
    },
    {
      "inputs": [
        {
          "internalType": "uint256",
          "name": "",
          "type": "uint256"
        },
        {
          "internalType": "bytes",
          "name": "",
          "type": "bytes"
        }
      ],
      "name": "burn",
      "outputs": [],
      "stateMutability": "pure",
      "type": "function"
    },
    {
      "inputs": [],
      "name": "decimals",
      "outputs": [
        {
          "internalType": "uint8",
          "name": "",
          "type": "uint8"
        }
      ],
      "stateMutability": "pure",
      "type": "function"
    },
    {
      "inputs": [],
      "name": "defaultOperators",
      "outputs": [
        {
          "internalType": "address[]",
          "name": "",
          "type": "address[]"
        }
      ],
      "stateMutability": "view",
      "type": "function"
    },
    {
      "inputs": [],
      "name": "granularity",
      "outputs": [
        {
          "internalType": "uint256",
          "name": "",
          "type": "uint256"
        }
      ],
      "stateMutability": "view",
      "type": "function"
    },
    {
      "inputs": [
        {
          "internalType": "address",
          "name": "operator",
          "type": "address"
        },
        {
          "internalType": "address",
          "name": "tokenHolder",
          "type": "address"
        }
      ],
      "name": "isOperatorFor",
      "outputs": [
        {
          "internalType": "bool",
          "name": "",
          "type": "bool"
        }
      ],
      "stateMutability": "view",
      "type": "function"
    },
    {
      "inputs": [
        {
          "internalType": "address",
          "name": "recipient",
          "type": "address"
        },
        {
          "internalType": "uint256",
          "name": "amount",
          "type": "uint256"
        },
        {
          "internalType": "bytes",
          "name": "data",
          "type": "bytes"
        }
      ],
      "name": "mint",
      "outputs": [],
      "stateMutability": "nonpayable",
      "type": "function"
    },
    {
      "inputs": [],
      "name": "name",
      "outputs": [
        {
          "internalType": "string",
          "name": "",
          "type": "string"
        }
      ],
      "stateMutability": "view",
      "type": "function"
    },
    {
      "inputs": [
        {
          "internalType": "address",
          "name": "",
          "type": "address"
        },
        {
          "internalType": "uint256",
          "name": "",
          "type": "uint256"
        },
        {
          "internalType": "bytes",
          "name": "",
          "type": "bytes"
        },
        {
          "internalType": "bytes",
          "name": "",
          "type": "bytes"
        }
      ],
      "name": "operatorBurn",
      "outputs": [],
      "stateMutability": "pure",
      "type": "function"
    },
    {
      "inputs": [
        {
          "internalType": "address",
          "name": "sender",
          "type": "address"
        },
        {
          "internalType": "address",
          "name": "recipient",
          "type": "address"
        },
        {
          "internalType": "uint256",
          "name": "amount",
          "type": "uint256"
        },
        {
          "internalType": "bytes",
          "name": "data",
          "type": "bytes"
        },
        {
          "internalType": "bytes",
          "name": "operatorData",
          "type": "bytes"
        }
      ],
      "name": "operatorSend",
      "outputs": [],
      "stateMutability": "nonpayable",
      "type": "function"
    },
    {
      "inputs": [],
      "name": "owner",
      "outputs": [
        {
          "internalType": "address",
          "name": "",
          "type": "address"
        }
      ],
      "stateMutability": "view",
      "type": "function"
    },
    {
      "inputs": [],
      "name": "renounceOwnership",
      "outputs": [],
      "stateMutability": "nonpayable",
      "type": "function"
    },
    {
      "inputs": [
        {
          "internalType": "address",
          "name": "operator",
          "type": "address"
        }
      ],
      "name": "revokeOperator",
      "outputs": [],
      "stateMutability": "nonpayable",
      "type": "function"
    },
    {
      "inputs": [
        {
          "internalType": "address",
          "name": "recipient",
          "type": "address"
        },
        {
          "internalType": "uint256",
          "name": "amount",
          "type": "uint256"
        },
        {
          "internalType": "bytes",
          "name": "data",
          "type": "bytes"
        }
      ],
      "name": "send",
      "outputs": [],
      "stateMutability": "nonpayable",
      "type": "function"
    },
    {
      "inputs": [],
      "name": "symbol",
      "outputs": [
        {
          "internalType": "string",
          "name": "",
          "type": "string"
        }
      ],
      "stateMutability": "view",
      "type": "function"
    },
    {
      "inputs": [],
      "name": "totalSupply",
      "outputs": [
        {
          "internalType": "uint256",
          "name": "",
          "type": "uint256"
        }
      ],
      "stateMutability": "view",
      "type": "function"
    },
    {
      "inputs": [
        {
          "internalType": "address",
          "name": "recipient",
          "type": "address"
        },
        {
          "internalType": "uint256",
          "name": "amount",
          "type": "uint256"
        }
      ],
      "name": "transfer",
      "outputs": [
        {
          "internalType": "bool",
          "name": "",
          "type": "bool"
        }
      ],
      "stateMutability": "nonpayable",
      "type": "function"
    },
    {
      "inputs": [
        {
          "internalType": "address",
          "name": "holder",
          "type": "address"
        },
        {
          "internalType": "address",
          "name": "recipient",
          "type": "address"
        },
        {
          "internalType": "uint256",
          "name": "amount",
          "type": "uint256"
        }
      ],
      "name": "transferFrom",
      "outputs": [
        {
          "internalType": "bool",
          "name": "",
          "type": "bool"
        }
      ],
      "stateMutability": "nonpayable",
      "type": "function"
    },
    {
      "inputs": [
        {
          "internalType": "address",
          "name": "newOwner",
          "type": "address"
        }
      ],
      "name": "transferOwnership",
      "outputs": [],
      "stateMutability": "nonpayable",
      "type": "function"
    }
  ],
  "bytecode": "0x60806040523480156200001157600080fd5b50604051620021c0380380620021c0833981016040819052620000349162000415565b82828282600290805190602001906200004f92919062000282565b5081516200006590600390602085019062000282565b5080516200007b90600490602084019062000311565b5060005b8151811015620000eb57600160056000848481518110620000a457620000a4620005cb565b6020908102919091018101516001600160a01b03168252810191909152604001600020805460ff191691151591909117905580620000e281620005a1565b9150506200007f565b506040516329965a1d60e01b815230600482018190527fac7fbab5f54a3ca8194167523c6753bfeb96a445279294b6125b68cce217705460248301526044820152731820a4b7618bde71dce8cdc73aab6c95905fad24906329965a1d90606401600060405180830381600087803b1580156200016657600080fd5b505af11580156200017b573d6000803e3d6000fd5b50506040516329965a1d60e01b815230600482018190527faea199e31a596269b42cdafd93407f14436db6e4cad65417994c2eb37381e05a60248301526044820152731820a4b7618bde71dce8cdc73aab6c95905fad2492506329965a1d9150606401600060405180830381600087803b158015620001f957600080fd5b505af11580156200020e573d6000803e3d6000fd5b505050505050506000620002276200027e60201b60201c565b600980546001600160a01b0319166001600160a01b038316908117909155604051919250906000907f8be0079c531659141344cd1fd0a4f28419497f9722a3daafe3b4186f6b6457e0908290a350505050620005f7565b3390565b828054620002909062000564565b90600052602060002090601f016020900481019282620002b45760008555620002ff565b82601f10620002cf57805160ff1916838001178555620002ff565b82800160010185558215620002ff579182015b82811115620002ff578251825591602001919060010190620002e2565b506200030d92915062000369565b5090565b828054828255906000526020600020908101928215620002ff579160200282015b82811115620002ff57825182546001600160a01b0319166001600160a01b0390911617825560209092019160019091019062000332565b5b808211156200030d57600081556001016200036a565b600082601f8301126200039257600080fd5b81516001600160401b03811115620003ae57620003ae620005e1565b6020620003c4601f8301601f1916820162000531565b8281528582848701011115620003d957600080fd5b60005b83811015620003f9578581018301518282018401528201620003dc565b838111156200040b5760008385840101525b5095945050505050565b6000806000606084860312156200042b57600080fd5b83516001600160401b03808211156200044357600080fd5b620004518783880162000380565b94506020915081860151818111156200046957600080fd5b620004778882890162000380565b9450506040860151818111156200048d57600080fd5b8601601f810188136200049f57600080fd5b805182811115620004b457620004b4620005e1565b8060051b9250620004c784840162000531565b8181528481019083860185850187018c1015620004e357600080fd5b600095508594505b83851015620005205780516001600160a01b03811681146200050b578687fd5b835260019490940193918601918601620004eb565b508096505050505050509250925092565b604051601f8201601f191681016001600160401b03811182821017156200055c576200055c620005e1565b604052919050565b600181811c908216806200057957607f821691505b602082108114156200059b57634e487b7160e01b600052602260045260246000fd5b50919050565b6000600019821415620005c457634e487b7160e01b600052601160045260246000fd5b5060010190565b634e487b7160e01b600052603260045260246000fd5b634e487b7160e01b600052604160045260246000fd5b611bb980620006076000396000f3fe608060405234801561001057600080fd5b506004361061014d5760003560e01c80638da5cb5b116100c3578063d95b63711161007c578063d95b6371146102ab578063dd62ed3e146102be578063f2fde38b146102f7578063fad8b32a1461030a578063fc673c4f1461031d578063fe9d93031461033057600080fd5b80638da5cb5b1461023c57806394d008ef14610257578063959b8c3f1461026a57806395d89b411461027d5780639bd9bbc614610285578063a9059cbb1461029857600080fd5b8063313ce56711610115578063313ce567146101cd57806344d17187146101dc578063556f0dc7146101f157806362ad1b83146101f857806370a082311461020b578063715018a61461023457600080fd5b806306e485381461015257806306fdde0314610170578063095ea7b31461018557806318160ddd146101a857806323b872dd146101ba575b600080fd5b61015a61033e565b60405161016791906119c7565b60405180910390f35b6101786103a0565b6040516101679190611a14565b6101986101933660046117d4565b610429565b6040519015158152602001610167565b6001545b604051908152602001610167565b6101986101c8366004611700565b610441565b60405160128152602001610167565b6101ef6101ea366004611800565b61060a565b005b60016101ac565b6101ef610206366004611741565b610654565b6101ac61021936600461168d565b6001600160a01b031660009081526020819052604090205490565b6101ef6106d5565b6009546040516001600160a01b039091168152602001610167565b6101ef610265366004611800565b610749565b6101ef61027836600461168d565b61078e565b6101786108ac565b6101ef610293366004611800565b6108bb565b6101986102a63660046117d4565b6108d9565b6101986102b93660046116c7565b61098c565b6101ac6102cc3660046116c7565b6001600160a01b03918216600090815260086020908152604080832093909416825291909152205490565b6101ef61030536600461168d565b610a2e565b6101ef61031836600461168d565b610b19565b6101ef61032b366004611859565b610c35565b6101ef61032b3660046118d9565b6060600480548060200260200160405190810160405280929190818152602001828054801561039657602002820191906000526020600020905b81546001600160a01b03168152600190910190602001808311610378575b5050505050905090565b6060600280546103af90611b04565b80601f01602080910402602001604051908101604052809291908181526020018280546103db90611b04565b80156103965780601f106103fd57610100808354040283529160200191610396565b820191906000526020600020905b81548152906001019060200180831161040b57509395945050505050565b600033610437818585610c6d565b5060019392505050565b60006001600160a01b0383166104725760405162461bcd60e51b815260040161046990611a5c565b60405180910390fd5b6001600160a01b0384166104d75760405162461bcd60e51b815260206004820152602660248201527f4552433737373a207472616e736665722066726f6d20746865207a65726f206160448201526564647265737360d01b6064820152608401610469565b6000339050610508818686866040518060200160405280600081525060405180602001604052806000815250610d94565b610534818686866040518060200160405280600081525060405180602001604052806000815250610ecb565b6001600160a01b03808616600090815260086020908152604080832093851683529290522054838110156105bc5760405162461bcd60e51b815260206004820152602960248201527f4552433737373a207472616e7366657220616d6f756e74206578636565647320604482015268616c6c6f77616e636560b81b6064820152608401610469565b6105d086836105cb8785611aed565b610c6d565b6105fe828787876040518060200160405280600081525060405180602001604052806000815250600061103a565b50600195945050505050565b6009546001600160a01b031633146106345760405162461bcd60e51b815260040161046990611a27565b61064f8383836040518060200160405280600081525061120e565b505050565b61065e338661098c565b6106bf5760405162461bcd60e51b815260206004820152602c60248201527f4552433737373a2063616c6c6572206973206e6f7420616e206f70657261746f60448201526b39103337b9103437b63232b960a11b6064820152608401610469565b6106ce858585858560016113cc565b5050505050565b6009546001600160a01b031633146106ff5760405162461bcd60e51b815260040161046990611a27565b6009546040516000916001600160a01b0316907f8be0079c531659141344cd1fd0a4f28419497f9722a3daafe3b4186f6b6457e0908390a3600980546001600160a01b0319169055565b6009546001600160a01b031633146107735760405162461bcd60e51b815260040161046990611a27565b61064f838383604051806020016040528060008152506114af565b336001600160a01b03821614156107f35760405162461bcd60e51b8152602060048201526024808201527f4552433737373a20617574686f72697a696e672073656c66206173206f70657260448201526330ba37b960e11b6064820152608401610469565b6001600160a01b03811660009081526005602052604090205460ff1615610844573360009081526007602090815260408083206001600160a01b03851684529091529020805460ff19169055610873565b3360009081526006602090815260408083206001600160a01b03851684529091529020805460ff191660011790555b60405133906001600160a01b038316907ff4caeb2d6ca8932a215a353d0703c326ec2d81fc68170f320eb2ab49e9df61f990600090a350565b6060600380546103af90611b04565b61064f338484846040518060200160405280600081525060016113cc565b60006001600160a01b0383166109015760405162461bcd60e51b815260040161046990611a5c565b6000339050610932818286866040518060200160405280600081525060405180602001604052806000815250610d94565b61095e818286866040518060200160405280600081525060405180602001604052806000815250610ecb565b610437818286866040518060200160405280600081525060405180602001604052806000815250600061103a565b6000816001600160a01b0316836001600160a01b031614806109f757506001600160a01b03831660009081526005602052604090205460ff1680156109f757506001600160a01b0380831660009081526007602090815260408083209387168352929052205460ff16155b80610a2757506001600160a01b0380831660009081526006602090815260408083209387168352929052205460ff165b9392505050565b6009546001600160a01b03163314610a585760405162461bcd60e51b815260040161046990611a27565b6001600160a01b038116610abd5760405162461bcd60e51b815260206004820152602660248201527f4f776e61626c653a206e6577206f776e657220697320746865207a65726f206160448201526564647265737360d01b6064820152608401610469565b6009546040516001600160a01b038084169216907f8be0079c531659141344cd1fd0a4f28419497f9722a3daafe3b4186f6b6457e090600090a3600980546001600160a01b0319166001600160a01b0392909216919091179055565b6001600160a01b038116331415610b7c5760405162461bcd60e51b815260206004820152602160248201527f4552433737373a207265766f6b696e672073656c66206173206f70657261746f6044820152603960f91b6064820152608401610469565b6001600160a01b03811660009081526005602052604090205460ff1615610bd0573360009081526007602090815260408083206001600160a01b03851684529091529020805460ff19166001179055610bfc565b3360009081526006602090815260408083206001600160a01b03851684529091529020805460ff191690555b60405133906001600160a01b038316907f50546e66e5f44d728365dc3908c63bc5cfeeab470722c1677e3073a6ac294aa190600090a350565b60405162461bcd60e51b815260206004820152600d60248201526c1b9bdd0b5cdd5c1c1bdc9d1959609a1b6044820152606401610469565b6001600160a01b038316610cd15760405162461bcd60e51b815260206004820152602560248201527f4552433737373a20617070726f76652066726f6d20746865207a65726f206164604482015264647265737360d81b6064820152608401610469565b6001600160a01b038216610d335760405162461bcd60e51b815260206004820152602360248201527f4552433737373a20617070726f766520746f20746865207a65726f206164647260448201526265737360e81b6064820152608401610469565b6001600160a01b0383811660008181526008602090815260408083209487168084529482529182902085905590518481527f8c5be1e5ebec7d5bd14f71427d1e84f3dd0314c0f7b2291e5b200ac8c7c3b925910160405180910390a3505050565b60405163555ddc6560e11b81526001600160a01b03861660048201527f29ddb589b1fb5fc7cf394961c1adf5f8c6454761adf795e67fe149f658abe8956024820152600090731820a4b7618bde71dce8cdc73aab6c95905fad249063aabbb8ca9060440160206040518083038186803b158015610e1057600080fd5b505afa158015610e24573d6000803e3d6000fd5b505050506040513d601f19601f82011682018060405250810190610e4891906116aa565b90506001600160a01b03811615610ec257604051633ad5cbc160e11b81526001600160a01b038216906375ab978290610e8f908a908a908a908a908a908a9060040161196d565b600060405180830381600087803b158015610ea957600080fd5b505af1158015610ebd573d6000803e3d6000fd5b505050505b50505050505050565b6001600160a01b03851660009081526020819052604090205483811015610f445760405162461bcd60e51b815260206004820152602760248201527f4552433737373a207472616e7366657220616d6f756e7420657863656564732060448201526662616c616e636560c81b6064820152608401610469565b610f4e8482611aed565b6001600160a01b038088166000908152602081905260408082209390935590871681529081208054869290610f84908490611ad5565b92505081905550846001600160a01b0316866001600160a01b0316886001600160a01b03167f06b541ddaa720db2b10a4d0cdac39b8d360425fc073085fac19bc82614677987878787604051610fdc93929190611aa0565b60405180910390a4846001600160a01b0316866001600160a01b03167fddf252ad1be2c89b69c2b068fc378daa952ba7f163c4a11628f55a4df523b3ef8660405161102991815260200190565b60405180910390a350505050505050565b60405163555ddc6560e11b81526001600160a01b03861660048201527fb281fc8c12954d22544db45de3159a39272895b169a852b314f9cc762e44c53b6024820152600090731820a4b7618bde71dce8cdc73aab6c95905fad249063aabbb8ca9060440160206040518083038186803b1580156110b657600080fd5b505afa1580156110ca573d6000803e3d6000fd5b505050506040513d601f19601f820116820180604052508101906110ee91906116aa565b90506001600160a01b0381161561116a576040516223de2960e01b81526001600160a01b038216906223de2990611133908b908b908b908b908b908b9060040161196d565b600060405180830381600087803b15801561114d57600080fd5b505af1158015611161573d6000803e3d6000fd5b50505050611204565b8115611204576001600160a01b0386163b156112045760405162461bcd60e51b815260206004820152604d60248201527f4552433737373a20746f6b656e20726563697069656e7420636f6e747261637460448201527f20686173206e6f20696d706c656d656e74657220666f7220455243373737546f60648201526c1ad95b9cd49958da5c1a595b9d609a1b608482015260a401610469565b5050505050505050565b6001600160a01b03841661126f5760405162461bcd60e51b815260206004820152602260248201527f4552433737373a206275726e2066726f6d20746865207a65726f206164647265604482015261737360f01b6064820152608401610469565b3361127f81866000878787610d94565b6001600160a01b038516600090815260208190526040902054848110156112f45760405162461bcd60e51b815260206004820152602360248201527f4552433737373a206275726e20616d6f756e7420657863656564732062616c616044820152626e636560e81b6064820152608401610469565b6112fe8582611aed565b6001600160a01b0387166000908152602081905260408120919091556001805487929061132c908490611aed565b92505081905550856001600160a01b0316826001600160a01b03167fa78a9be3a7b862d26933ad85fb11d80ef66b8f972d7cbba06621d583943a409887878760405161137a93929190611aa0565b60405180910390a36040518581526000906001600160a01b038816907fddf252ad1be2c89b69c2b068fc378daa952ba7f163c4a11628f55a4df523b3ef906020015b60405180910390a3505050505050565b6001600160a01b03861661142d5760405162461bcd60e51b815260206004820152602260248201527f4552433737373a2073656e642066726f6d20746865207a65726f206164647265604482015261737360f01b6064820152608401610469565b6001600160a01b0385166114835760405162461bcd60e51b815260206004820181905260248201527f4552433737373a2073656e6420746f20746865207a65726f20616464726573736044820152606401610469565b33611492818888888888610d94565b6114a0818888888888610ecb565b610ec28188888888888861103a565b6114bd8484848460016114c3565b50505050565b6001600160a01b0385166115195760405162461bcd60e51b815260206004820181905260248201527f4552433737373a206d696e7420746f20746865207a65726f20616464726573736044820152606401610469565b600033905084600160008282546115309190611ad5565b90915550506001600160a01b0386166000908152602081905260408120805487929061155d908490611ad5565b909155506115739050816000888888888861103a565b856001600160a01b0316816001600160a01b03167f2fe5be0146f74c5bce36c0b80911af6c7d86ff27e89d5cfa61fc681327954e5d8787876040516115ba93929190611aa0565b60405180910390a36040518581526001600160a01b038716906000907fddf252ad1be2c89b69c2b068fc378daa952ba7f163c4a11628f55a4df523b3ef906020016113bc565b600082601f83011261161157600080fd5b813567ffffffffffffffff8082111561162c5761162c611b55565b604051601f8301601f19908116603f0116810190828211818310171561165457611654611b55565b8160405283815286602085880101111561166d57600080fd5b836020870160208301376000602085830101528094505050505092915050565b60006020828403121561169f57600080fd5b8135610a2781611b6b565b6000602082840312156116bc57600080fd5b8151610a2781611b6b565b600080604083850312156116da57600080fd5b82356116e581611b6b565b915060208301356116f581611b6b565b809150509250929050565b60008060006060848603121561171557600080fd5b833561172081611b6b565b9250602084013561173081611b6b565b929592945050506040919091013590565b600080600080600060a0868803121561175957600080fd5b853561176481611b6b565b9450602086013561177481611b6b565b935060408601359250606086013567ffffffffffffffff8082111561179857600080fd5b6117a489838a01611600565b935060808801359150808211156117ba57600080fd5b506117c788828901611600565b9150509295509295909350565b600080604083850312156117e757600080fd5b82356117f281611b6b565b946020939093013593505050565b60008060006060848603121561181557600080fd5b833561182081611b6b565b925060208401359150604084013567ffffffffffffffff81111561184357600080fd5b61184f86828701611600565b9150509250925092565b6000806000806080858703121561186f57600080fd5b843561187a81611b6b565b935060208501359250604085013567ffffffffffffffff8082111561189e57600080fd5b6118aa88838901611600565b935060608701359150808211156118c057600080fd5b506118cd87828801611600565b91505092959194509250565b600080604083850312156118ec57600080fd5b82359150602083013567ffffffffffffffff81111561190a57600080fd5b61191685828601611600565b9150509250929050565b6000815180845260005b818110156119465760208185018101518683018201520161192a565b81811115611958576000602083870101525b50601f01601f19169290920160200192915050565b6001600160a01b0387811682528681166020830152851660408201526060810184905260c0608082018190526000906119a890830185611920565b82810360a08401526119ba8185611920565b9998505050505050505050565b6020808252825182820181905260009190848201906040850190845b81811015611a085783516001600160a01b0316835292840192918401916001016119e3565b50909695505050505050565b602081526000610a276020830184611920565b6020808252818101527f4f776e61626c653a2063616c6c6572206973206e6f7420746865206f776e6572604082015260600190565b60208082526024908201527f4552433737373a207472616e7366657220746f20746865207a65726f206164646040820152637265737360e01b606082015260800190565b838152606060208201526000611ab96060830185611920565b8281036040840152611acb8185611920565b9695505050505050565b60008219821115611ae857611ae8611b3f565b500190565b600082821015611aff57611aff611b3f565b500390565b600181811c90821680611b1857607f821691505b60208210811415611b3957634e487b7160e01b600052602260045260246000fd5b50919050565b634e487b7160e01b600052601160045260246000fd5b634e487b7160e01b600052604160045260246000fd5b6001600160a01b0381168114611b8057600080fd5b5056fea26469706673582212203c7e20c44794330c75e6f4106a2a23a9d7cd4a1f7dffeb5116aca1572d0e4e8564736f6c63430008060033",
  "linkReferences": {},
  "deployedLinkReferences": {}
}