{
  "_format": "hh-sol-artifact-1",
  "contractName": "BasicOutboundChannel",
  "sourceName": "@snowfork/snowbridge-contracts/contracts/BasicOutboundChannel.sol",
  "abi": [
    {
      "inputs": [],
      "stateMutability": "nonpayable",
      "type": "constructor"
    },
    {
      "anonymous": false,
      "inputs": [
        {
          "indexed": false,
          "internalType": "address",
          "name": "source",
          "type": "address"
        },
        {
          "indexed": false,
          "internalType": "uint64",
          "name": "nonce",
          "type": "uint64"
        },
        {
          "indexed": false,
          "internalType": "bytes",
          "name": "payload",
          "type": "bytes"
        }
      ],
      "name": "Message",
      "type": "event"
    },
    {
      "anonymous": false,
      "inputs": [
        {
          "indexed": false,
          "internalType": "address",
          "name": "operator",
          "type": "address"
        },
        {
          "indexed": false,
          "internalType": "address",
          "name": "user",
          "type": "address"
        }
      ],
      "name": "OperatorAuthorized",
      "type": "event"
    },
    {
      "anonymous": false,
      "inputs": [
        {
          "indexed": false,
          "internalType": "address",
          "name": "operator",
          "type": "address"
        },
        {
          "indexed": false,
          "internalType": "address",
          "name": "user",
          "type": "address"
        }
      ],
      "name": "OperatorRevoked",
      "type": "event"
    },
    {
      "anonymous": false,
      "inputs": [
        {
          "indexed": true,
          "internalType": "bytes32",
          "name": "role",
          "type": "bytes32"
        },
        {
          "indexed": true,
          "internalType": "bytes32",
          "name": "previousAdminRole",
          "type": "bytes32"
        },
        {
          "indexed": true,
          "internalType": "bytes32",
          "name": "newAdminRole",
          "type": "bytes32"
        }
      ],
      "name": "RoleAdminChanged",
      "type": "event"
    },
    {
      "anonymous": false,
      "inputs": [
        {
          "indexed": true,
          "internalType": "bytes32",
          "name": "role",
          "type": "bytes32"
        },
        {
          "indexed": true,
          "internalType": "address",
          "name": "account",
          "type": "address"
        },
        {
          "indexed": true,
          "internalType": "address",
          "name": "sender",
          "type": "address"
        }
      ],
      "name": "RoleGranted",
      "type": "event"
    },
    {
      "anonymous": false,
      "inputs": [
        {
          "indexed": true,
          "internalType": "bytes32",
          "name": "role",
          "type": "bytes32"
        },
        {
          "indexed": true,
          "internalType": "address",
          "name": "account",
          "type": "address"
        },
        {
          "indexed": true,
          "internalType": "address",
          "name": "sender",
          "type": "address"
        }
      ],
      "name": "RoleRevoked",
      "type": "event"
    },
    {
      "inputs": [],
      "name": "CONFIG_UPDATE_ROLE",
      "outputs": [
        {
          "internalType": "bytes32",
          "name": "",
          "type": "bytes32"
        }
      ],
      "stateMutability": "view",
      "type": "function"
    },
    {
      "inputs": [],
      "name": "DEFAULT_ADMIN_ROLE",
      "outputs": [
        {
          "internalType": "bytes32",
          "name": "",
          "type": "bytes32"
        }
      ],
      "stateMutability": "view",
      "type": "function"
    },
    {
      "inputs": [
        {
          "internalType": "address",
          "name": "operator",
          "type": "address"
        }
      ],
      "name": "authorizeDefaultOperator",
      "outputs": [],
      "stateMutability": "nonpayable",
      "type": "function"
    },
    {
      "inputs": [
        {
          "internalType": "address",
          "name": "operator",
          "type": "address"
        }
      ],
      "name": "authorizeOperator",
      "outputs": [],
      "stateMutability": "nonpayable",
      "type": "function"
    },
    {
      "inputs": [
        {
          "internalType": "bytes32",
          "name": "role",
          "type": "bytes32"
        }
      ],
      "name": "getRoleAdmin",
      "outputs": [
        {
          "internalType": "bytes32",
          "name": "",
          "type": "bytes32"
        }
      ],
      "stateMutability": "view",
      "type": "function"
    },
    {
      "inputs": [
        {
          "internalType": "bytes32",
          "name": "role",
          "type": "bytes32"
        },
        {
          "internalType": "address",
          "name": "account",
          "type": "address"
        }
      ],
      "name": "grantRole",
      "outputs": [],
      "stateMutability": "nonpayable",
      "type": "function"
    },
    {
      "inputs": [
        {
          "internalType": "bytes32",
          "name": "role",
          "type": "bytes32"
        },
        {
          "internalType": "address",
          "name": "account",
          "type": "address"
        }
      ],
      "name": "hasRole",
      "outputs": [
        {
          "internalType": "bool",
          "name": "",
          "type": "bool"
        }
      ],
      "stateMutability": "view",
      "type": "function"
    },
    {
      "inputs": [
        {
          "internalType": "address",
          "name": "_configUpdater",
          "type": "address"
        },
        {
          "internalType": "address",
          "name": "_principal",
          "type": "address"
        },
        {
          "internalType": "address[]",
          "name": "defaultOperators",
          "type": "address[]"
        }
      ],
      "name": "initialize",
      "outputs": [],
      "stateMutability": "nonpayable",
      "type": "function"
    },
    {
      "inputs": [
        {
          "internalType": "address",
          "name": "_operator",
          "type": "address"
        },
        {
          "internalType": "address",
          "name": "_origin",
          "type": "address"
        }
      ],
      "name": "isOperatorFor",
      "outputs": [
        {
          "internalType": "bool",
          "name": "",
          "type": "bool"
        }
      ],
      "stateMutability": "view",
      "type": "function"
    },
    {
      "inputs": [],
      "name": "nonce",
      "outputs": [
        {
          "internalType": "uint64",
          "name": "",
          "type": "uint64"
        }
      ],
      "stateMutability": "view",
      "type": "function"
    },
    {
      "inputs": [],
      "name": "principal",
      "outputs": [
        {
          "internalType": "address",
          "name": "",
          "type": "address"
        }
      ],
      "stateMutability": "view",
      "type": "function"
    },
    {
      "inputs": [
        {
          "internalType": "bytes32",
          "name": "role",
          "type": "bytes32"
        },
        {
          "internalType": "address",
          "name": "account",
          "type": "address"
        }
      ],
      "name": "renounceRole",
      "outputs": [],
      "stateMutability": "nonpayable",
      "type": "function"
    },
    {
      "inputs": [
        {
          "internalType": "address",
          "name": "operator",
          "type": "address"
        }
      ],
      "name": "revokeDefaultOperator",
      "outputs": [],
      "stateMutability": "nonpayable",
      "type": "function"
    },
    {
      "inputs": [
        {
          "internalType": "address",
          "name": "operator",
          "type": "address"
        }
      ],
      "name": "revokeOperator",
      "outputs": [],
      "stateMutability": "nonpayable",
      "type": "function"
    },
    {
      "inputs": [
        {
          "internalType": "bytes32",
          "name": "role",
          "type": "bytes32"
        },
        {
          "internalType": "address",
          "name": "account",
          "type": "address"
        }
      ],
      "name": "revokeRole",
      "outputs": [],
      "stateMutability": "nonpayable",
      "type": "function"
    },
    {
      "inputs": [
        {
          "internalType": "address",
          "name": "_principal",
          "type": "address"
        }
      ],
      "name": "setPrincipal",
      "outputs": [],
      "stateMutability": "nonpayable",
      "type": "function"
    },
    {
      "inputs": [
        {
          "internalType": "address",
          "name": "_origin",
          "type": "address"
        },
        {
          "internalType": "bytes",
          "name": "_payload",
          "type": "bytes"
        }
      ],
      "name": "submit",
      "outputs": [],
      "stateMutability": "nonpayable",
      "type": "function"
    },
    {
      "inputs": [
        {
          "internalType": "bytes4",
          "name": "interfaceId",
          "type": "bytes4"
        }
      ],
      "name": "supportsInterface",
      "outputs": [
        {
          "internalType": "bool",
          "name": "",
          "type": "bool"
        }
      ],
      "stateMutability": "view",
      "type": "function"
    }
  ],
  "bytecode": "0x608060405234801561001057600080fd5b5061001c600033610021565b6100d1565b61002b828261002f565b5050565b60008281526002602090815260408083206001600160a01b038516845290915290205460ff1661002b5760008281526002602090815260408083206001600160a01b03851684529091529020805460ff1916600117905561008d3390565b6001600160a01b0316816001600160a01b0316837f2f8788117e7eff1d82e926ec794901d17c78024a50270940304540a733656f0d60405160405180910390a45050565b6110c1806100e06000396000f3fe608060405234801561001057600080fd5b50600436106101165760003560e01c8063959b8c3f116100a2578063b742a40411610071578063b742a40414610258578063ba5d30781461026b578063d547741f1461029d578063d95b6371146102b0578063fad8b32a146102c357600080fd5b8063959b8c3f146101fb578063a217fddf1461020e578063a2d6c6e514610216578063affed0e01461022b57600080fd5b806336568abe116100e957806336568abe1461019c57806376846edd146101af57806377a24f36146101c2578063847fd5bf146101d557806391d14854146101e857600080fd5b806301ffc9a71461011b578063248a9ca3146101435780632a7534a3146101745780632f2ff15d14610189575b600080fd5b61012e610129366004610e45565b6102d6565b60405190151581526020015b60405180910390f35b610166610151366004610e09565b60009081526002602052604090206001015490565b60405190815260200161013a565b610187610182366004610c49565b61030d565b005b610187610197366004610e22565b610333565b6101876101aa366004610e22565b61035e565b6101876101bd366004610d86565b6103dd565b6101876101d0366004610c97565b610533565b6101876101e3366004610c49565b6105cd565b61012e6101f6366004610e22565b610613565b610187610209366004610c49565b61063e565b610166600081565b61016660008051602061106c83398151915281565b60035461023f9067ffffffffffffffff1681565b60405167ffffffffffffffff909116815260200161013a565b610187610266366004610c49565b610703565b60035461028590600160401b90046001600160a01b031681565b6040516001600160a01b03909116815260200161013a565b6101876102ab366004610e22565b610725565b61012e6102be366004610c64565b61074b565b6101876102d1366004610c49565b6107bc565b60006001600160e01b03198216637965db0b60e01b148061030757506301ffc9a760e01b6001600160e01b03198316145b92915050565b60008051602061106c8339815191526103268133610873565b61032f826108d7565b5050565b60008281526002602052604090206001015461034f8133610873565b6103598383610980565b505050565b6001600160a01b03811633146103d35760405162461bcd60e51b815260206004820152602f60248201527f416363657373436f6e74726f6c3a2063616e206f6e6c792072656e6f756e636560448201526e103937b632b9903337b91039b2b63360891b60648201526084015b60405180910390fd5b61032f8282610a06565b6103e7338461074b565b61042c5760405162461bcd60e51b815260206004820152601660248201527510d85b1b195c881a5cc81d5b985d5d1a1bdc9a5e995960521b60448201526064016103ca565b600354600160401b90046001600160a01b03166042146104b8576003546001600160a01b03848116600160401b90920416146104b85760405162461bcd60e51b815260206004820152602560248201527f4f726967696e206973206e6f7420616e20617574686f72697a6564207072696e60448201526418da5c185b60da1b60648201526084016103ca565b6003546104d09067ffffffffffffffff166001610f80565b6003805467ffffffffffffffff191667ffffffffffffffff9290921691821790556040517f779b38144a38cfc4351816442048b17fe24ba2b0e0c63446b576e8281160b15b916105269133919086908690610ee4565b60405180910390a1505050565b600061053f8133610873565b61055760008051602061106c83398151915285610333565b60038054600160401b600160e01b031916600160401b6001600160a01b0386160217905560005b82518110156105bb576105a983828151811061059c5761059c61103f565b6020026020010151610a6d565b806105b38161100e565b91505061057e565b506105c760003361035e565b50505050565b60008051602061106c8339815191526105e68133610873565b50600380546001600160a01b03909216600160401b02600160401b600160e01b0319909216919091179055565b60009182526002602090815260408084206001600160a01b0393909316845291905290205460ff1690565b336001600160a01b03821614156106975760405162461bcd60e51b815260206004820152601c60248201527f417574686f72697a696e672073656c66206173206f70657261746f720000000060448201526064016103ca565b3360008181526001602081815260408084206001600160a01b03871680865290835293819020805460ff191690931790925581519283528201929092527f4d8c877a9def059a7322c328d7394f8640d101d29c811e10268b9b6125e9025391015b60405180910390a150565b60008051602061106c83398151915261071c8133610873565b61032f82610a6d565b6000828152600260205260409020600101546107418133610873565b6103598383610a06565b6000816001600160a01b0316836001600160a01b0316148061078557506001600160a01b03831660009081526020819052604090205460ff165b806107b557506001600160a01b0380831660009081526001602090815260408083209387168352929052205460ff165b9392505050565b336001600160a01b03821614156108115760405162461bcd60e51b81526020600482015260196024820152782932bb37b5b4b7339039b2b6331030b99037b832b930ba37b960391b60448201526064016103ca565b3360008181526001602090815260408083206001600160a01b03861680855290835292819020805460ff191690558051928352908201929092527fa8082fae8d1bd57faeb4dde45721b46afb72c45e72e5deb2a355bd997f6251a991016106f8565b61087d8282610613565b61032f57610895816001600160a01b03166014610a91565b6108a0836020610a91565b6040516020016108b1929190610e6f565b60408051601f198184030181529082905262461bcd60e51b82526103ca91600401610f35565b336001600160a01b038216141561092c5760405162461bcd60e51b81526020600482015260196024820152782932bb37b5b4b7339039b2b6331030b99037b832b930ba37b960391b60448201526064016103ca565b6001600160a01b03811660008181526020818152604091829020805460ff19169055815192835233908301527fa8082fae8d1bd57faeb4dde45721b46afb72c45e72e5deb2a355bd997f6251a991016106f8565b61098a8282610613565b61032f5760008281526002602090815260408083206001600160a01b03851684529091529020805460ff191660011790556109c23390565b6001600160a01b0316816001600160a01b0316837f2f8788117e7eff1d82e926ec794901d17c78024a50270940304540a733656f0d60405160405180910390a45050565b610a108282610613565b1561032f5760008281526002602090815260408083206001600160a01b0385168085529252808320805460ff1916905551339285917ff6391f5c32d9c69d2a47ea670b442974b53935d1edc7fd64eb21e047a839171b9190a45050565b6001600160a01b03166000908152602081905260409020805460ff19166001179055565b60606000610aa0836002610fac565b610aab906002610f68565b67ffffffffffffffff811115610ac357610ac3611055565b6040519080825280601f01601f191660200182016040528015610aed576020820181803683370190505b509050600360fc1b81600081518110610b0857610b0861103f565b60200101906001600160f81b031916908160001a905350600f60fb1b81600181518110610b3757610b3761103f565b60200101906001600160f81b031916908160001a9053506000610b5b846002610fac565b610b66906001610f68565b90505b6001811115610bde576f181899199a1a9b1b9c1cb0b131b232b360811b85600f1660108110610b9a57610b9a61103f565b1a60f81b828281518110610bb057610bb061103f565b60200101906001600160f81b031916908160001a90535060049490941c93610bd781610ff7565b9050610b69565b5083156107b55760405162461bcd60e51b815260206004820181905260248201527f537472696e67733a20686578206c656e67746820696e73756666696369656e7460448201526064016103ca565b80356001600160a01b0381168114610c4457600080fd5b919050565b600060208284031215610c5b57600080fd5b6107b582610c2d565b60008060408385031215610c7757600080fd5b610c8083610c2d565b9150610c8e60208401610c2d565b90509250929050565b600080600060608486031215610cac57600080fd5b610cb584610c2d565b92506020610cc4818601610c2d565b9250604085013567ffffffffffffffff80821115610ce157600080fd5b818701915087601f830112610cf557600080fd5b813581811115610d0757610d07611055565b8060051b604051601f19603f83011681018181108582111715610d2c57610d2c611055565b604052828152858101935084860182860187018c1015610d4b57600080fd5b600095505b83861015610d7557610d6181610c2d565b855260019590950194938601938601610d50565b508096505050505050509250925092565b600080600060408486031215610d9b57600080fd5b610da484610c2d565b9250602084013567ffffffffffffffff80821115610dc157600080fd5b818601915086601f830112610dd557600080fd5b813581811115610de457600080fd5b876020828501011115610df657600080fd5b6020830194508093505050509250925092565b600060208284031215610e1b57600080fd5b5035919050565b60008060408385031215610e3557600080fd5b82359150610c8e60208401610c2d565b600060208284031215610e5757600080fd5b81356001600160e01b0319811681146107b557600080fd5b7f416363657373436f6e74726f6c3a206163636f756e7420000000000000000000815260008351610ea7816017850160208801610fcb565b7001034b99036b4b9b9b4b733903937b6329607d1b6017918401918201528351610ed8816028840160208801610fcb565b01602801949350505050565b6001600160a01b038516815267ffffffffffffffff841660208201526060604082018190528101829052818360808301376000818301608090810191909152601f909201601f191601019392505050565b6020815260008251806020840152610f54816040850160208701610fcb565b601f01601f19169190910160400192915050565b60008219821115610f7b57610f7b611029565b500190565b600067ffffffffffffffff808316818516808303821115610fa357610fa3611029565b01949350505050565b6000816000190483118215151615610fc657610fc6611029565b500290565b60005b83811015610fe6578181015183820152602001610fce565b838111156105c75750506000910152565b60008161100657611006611029565b506000190190565b600060001982141561102257611022611029565b5060010190565b634e487b7160e01b600052601160045260246000fd5b634e487b7160e01b600052603260045260246000fd5b634e487b7160e01b600052604160045260246000fdfe32e4cdbcd9c00d473129ed98a14e66b6f3434febcbfd293f5af182c102b315f7a26469706673582212203c20153546521380d96e98ff4369b0f84edb08f8459abbb2f9bb37ffdf433b1864736f6c63430008060033",
  "linkReferences": {},
  "deployedLinkReferences": {}
}