{
  "_format": "hh-sol-artifact-1",
  "contractName": "ParachainLightClient",
  "sourceName": "@snowfork/snowbridge-contracts/contracts/ParachainLightClient.sol",
  "abi": [
    {
      "inputs": [],
      "name": "PARACHAIN_ID_SCALE",
      "outputs": [
        {
          "internalType": "bytes4",
          "name": "",
          "type": "bytes4"
        }
      ],
      "stateMutability": "view",
      "type": "function"
    },
    {
      "inputs": [
        {
          "components": [
            {
              "internalType": "uint8",
              "name": "version",
              "type": "uint8"
            },
            {
              "internalType": "uint32",
              "name": "parentNumber",
              "type": "uint32"
            },
            {
              "internalType": "bytes32",
              "name": "parentHash",
              "type": "bytes32"
            },
            {
              "internalType": "uint64",
              "name": "nextAuthoritySetId",
              "type": "uint64"
            },
            {
              "internalType": "uint32",
              "name": "nextAuthoritySetLen",
              "type": "uint32"
            },
            {
              "internalType": "bytes32",
              "name": "nextAuthoritySetRoot",
              "type": "bytes32"
            }
          ],
          "internalType": "struct ParachainLightClient.BeefyMMRLeafPartial",
          "name": "leaf",
          "type": "tuple"
        },
        {
          "internalType": "bytes32",
          "name": "parachainHeadsRoot",
          "type": "bytes32"
        }
      ],
      "name": "createMMRLeafHash",
      "outputs": [
        {
          "internalType": "bytes32",
          "name": "",
          "type": "bytes32"
        }
      ],
      "stateMutability": "pure",
      "type": "function"
    },
    {
      "inputs": [
        {
          "internalType": "bytes",
          "name": "_ownParachainHeadPrefixBytes",
          "type": "bytes"
        },
        {
          "internalType": "bytes32",
          "name": "commitment",
          "type": "bytes32"
        },
        {
          "internalType": "bytes",
          "name": "_ownParachainHeadSuffixBytes",
          "type": "bytes"
        }
      ],
      "name": "createParachainMerkleLeaf",
      "outputs": [
        {
          "internalType": "bytes32",
          "name": "",
          "type": "bytes32"
        }
      ],
      "stateMutability": "pure",
      "type": "function"
    }
  ],
  "bytecode": "0x61064c61003a600b82828239805160001a60731461002d57634e487b7160e01b600052600060045260246000fd5b30600052607381538281f3fe730000000000000000000000000000000000000000301460806040526004361061004b5760003560e01c806369be0fe714610050578063d8be3c3514610076578063e17cc1291461009b575b600080fd5b61006361005e366004610534565b6100ae565b6040519081526020015b60405180910390f35b61008261e80360f01b81565b6040516001600160e01b0319909116815260200161006d565b6100636100a93660046104ba565b6103a4565b60008073__$276cc14ce47cc15bfe88c6e1cbd14dec7e$__6353fae6746100d860208701876105b5565b6040516001600160e01b031960e084901b16815260ff909116600482015260240160206040518083038186803b15801561011157600080fd5b505af4158015610125573d6000803e3d6000fd5b505050506040513d601f19601f820116820180604052508101906101499190610435565b73__$276cc14ce47cc15bfe88c6e1cbd14dec7e$__63381f760d6101736040880160208901610565565b6040516001600160e01b031960e084901b16815263ffffffff91909116600482015260240160206040518083038186803b1580156101b057600080fd5b505af41580156101c4573d6000803e3d6000fd5b505050506040513d601f19601f820116820180604052508101906101e89190610466565b604086013573__$276cc14ce47cc15bfe88c6e1cbd14dec7e$__63f83d7d5f61021760808a0160608b0161058b565b6040516001600160e01b031960e084901b16815267ffffffffffffffff909116600482015260240160206040518083038186803b15801561025757600080fd5b505af415801561026b573d6000803e3d6000fd5b505050506040513d601f19601f8201168201806040525081019061028f9190610490565b73__$276cc14ce47cc15bfe88c6e1cbd14dec7e$__63381f760d6102b960a08b0160808c01610565565b6040516001600160e01b031960e084901b16815263ffffffff91909116600482015260240160206040518083038186803b1580156102f657600080fd5b505af415801561030a573d6000803e3d6000fd5b505050506040513d601f19601f8201168201806040525081019061032e9190610466565b6040516001600160f81b031990951660208601526001600160e01b0319938416602186015260258501929092526001600160c01b031916604584015216604d82015260a085013560518201526071810184905260910160408051808303601f190181529190528051602090910120949350505050565b60008063e803000060e01b87878787876040516020016103c9969594939291906105d8565b60408051808303601f190181529190528051602090910120979650505050505050565b60008083601f8401126103fe57600080fd5b50813567ffffffffffffffff81111561041657600080fd5b60208301915083602082850101111561042e57600080fd5b9250929050565b60006020828403121561044757600080fd5b81516001600160f81b03198116811461045f57600080fd5b9392505050565b60006020828403121561047857600080fd5b81516001600160e01b03198116811461045f57600080fd5b6000602082840312156104a257600080fd5b81516001600160c01b03198116811461045f57600080fd5b6000806000806000606086880312156104d257600080fd5b853567ffffffffffffffff808211156104ea57600080fd5b6104f689838a016103ec565b909750955060208801359450604088013591508082111561051657600080fd5b50610523888289016103ec565b969995985093965092949392505050565b60008082840360e081121561054857600080fd5b60c081121561055657600080fd5b50919360c08501359350915050565b60006020828403121561057757600080fd5b813563ffffffff8116811461045f57600080fd5b60006020828403121561059d57600080fd5b813567ffffffffffffffff8116811461045f57600080fd5b6000602082840312156105c757600080fd5b813560ff8116811461045f57600080fd5b6001600160e01b031987168152848660048301378481016004810185905260009083856024830137600093016024019283525090969550505050505056fea264697066735822122033fc8e35d9f7763dd84c08c3acf912008a23ab7b42669f3dc2b33a1c34b95f7264736f6c63430008060033",
  "linkReferences": {
    "@snowfork/snowbridge-contracts/contracts/ScaleCodec.sol": {
      "ScaleCodec": [
        {
          "length": 20,
          "start": 237
        },
        {
          "length": 20,
          "start": 389
        },
        {
          "length": 20,
          "start": 553
        },
        {
          "length": 20,
          "start": 715
        }
      ]
    }
  },
  "deployedLinkReferences": {
    "@snowfork/snowbridge-contracts/contracts/ScaleCodec.sol": {
      "ScaleCodec": [
        {
          "length": 20,
          "start": 179
        },
        {
          "length": 20,
          "start": 331
        },
        {
          "length": 20,
          "start": 495
        },
        {
          "length": 20,
          "start": 657
        }
      ]
    }
  }
}