{
  "_format": "hh-sol-artifact-1",
  "contractName": "TestToken721Enumerable",
  "sourceName": "contracts/test/TestToken721Enumerable.sol",
  "abi": [
    {
      "inputs": [
        {
          "internalType": "string",
          "name": "_name",
          "type": "string"
        },
        {
          "internalType": "string",
          "name": "_symbol",
          "type": "string"
        }
      ],
      "stateMutability": "nonpayable",
      "type": "constructor"
    },
    {
      "anonymous": false,
      "inputs": [
        {
          "indexed": true,
          "internalType": "address",
          "name": "owner",
          "type": "address"
        },
        {
          "indexed": true,
          "internalType": "address",
          "name": "approved",
          "type": "address"
        },
        {
          "indexed": true,
          "internalType": "uint256",
          "name": "tokenId",
          "type": "uint256"
        }
      ],
      "name": "Approval",
      "type": "event"
    },
    {
      "anonymous": false,
      "inputs": [
        {
          "indexed": true,
          "internalType": "address",
          "name": "owner",
          "type": "address"
        },
        {
          "indexed": true,
          "internalType": "address",
          "name": "operator",
          "type": "address"
        },
        {
          "indexed": false,
          "internalType": "bool",
          "name": "approved",
          "type": "bool"
        }
      ],
      "name": "ApprovalForAll",
      "type": "event"
    },
    {
      "anonymous": false,
      "inputs": [
        {
          "indexed": true,
          "internalType": "address",
          "name": "from",
          "type": "address"
        },
        {
          "indexed": true,
          "internalType": "address",
          "name": "to",
          "type": "address"
        },
        {
          "indexed": true,
          "internalType": "uint256",
          "name": "tokenId",
          "type": "uint256"
        }
      ],
      "name": "Transfer",
      "type": "event"
    },
    {
      "inputs": [
        {
          "internalType": "address",
          "name": "to",
          "type": "address"
        },
        {
          "internalType": "uint256",
          "name": "tokenId",
          "type": "uint256"
        }
      ],
      "name": "approve",
      "outputs": [],
      "stateMutability": "nonpayable",
      "type": "function"
    },
    {
      "inputs": [
        {
          "internalType": "address",
          "name": "owner",
          "type": "address"
        }
      ],
      "name": "balanceOf",
      "outputs": [
        {
          "internalType": "uint256",
          "name": "",
          "type": "uint256"
        }
      ],
      "stateMutability": "view",
      "type": "function"
    },
    {
      "inputs": [
        {
          "internalType": "uint256",
          "name": "tokenId",
          "type": "uint256"
        }
      ],
      "name": "getApproved",
      "outputs": [
        {
          "internalType": "address",
          "name": "",
          "type": "address"
        }
      ],
      "stateMutability": "view",
      "type": "function"
    },
    {
      "inputs": [
        {
          "internalType": "address",
          "name": "owner",
          "type": "address"
        },
        {
          "internalType": "address",
          "name": "operator",
          "type": "address"
        }
      ],
      "name": "isApprovedForAll",
      "outputs": [
        {
          "internalType": "bool",
          "name": "",
          "type": "bool"
        }
      ],
      "stateMutability": "view",
      "type": "function"
    },
    {
      "inputs": [
        {
          "internalType": "address",
          "name": "to",
          "type": "address"
        },
        {
          "internalType": "uint256",
          "name": "tokenId",
          "type": "uint256"
        }
      ],
      "name": "mint",
      "outputs": [],
      "stateMutability": "nonpayable",
      "type": "function"
    },
    {
      "inputs": [],
      "name": "name",
      "outputs": [
        {
          "internalType": "string",
          "name": "",
          "type": "string"
        }
      ],
      "stateMutability": "view",
      "type": "function"
    },
    {
      "inputs": [
        {
          "internalType": "uint256",
          "name": "tokenId",
          "type": "uint256"
        }
      ],
      "name": "ownerOf",
      "outputs": [
        {
          "internalType": "address",
          "name": "",
          "type": "address"
        }
      ],
      "stateMutability": "view",
      "type": "function"
    },
    {
      "inputs": [
        {
          "internalType": "address",
          "name": "from",
          "type": "address"
        },
        {
          "internalType": "address",
          "name": "to",
          "type": "address"
        },
        {
          "internalType": "uint256",
          "name": "tokenId",
          "type": "uint256"
        }
      ],
      "name": "safeTransferFrom",
      "outputs": [],
      "stateMutability": "nonpayable",
      "type": "function"
    },
    {
      "inputs": [
        {
          "internalType": "address",
          "name": "from",
          "type": "address"
        },
        {
          "internalType": "address",
          "name": "to",
          "type": "address"
        },
        {
          "internalType": "uint256",
          "name": "tokenId",
          "type": "uint256"
        },
        {
          "internalType": "bytes",
          "name": "_data",
          "type": "bytes"
        }
      ],
      "name": "safeTransferFrom",
      "outputs": [],
      "stateMutability": "nonpayable",
      "type": "function"
    },
    {
      "inputs": [
        {
          "internalType": "address",
          "name": "operator",
          "type": "address"
        },
        {
          "internalType": "bool",
          "name": "approved",
          "type": "bool"
        }
      ],
      "name": "setApprovalForAll",
      "outputs": [],
      "stateMutability": "nonpayable",
      "type": "function"
    },
    {
      "inputs": [
        {
          "internalType": "bytes4",
          "name": "interfaceId",
          "type": "bytes4"
        }
      ],
      "name": "supportsInterface",
      "outputs": [
        {
          "internalType": "bool",
          "name": "",
          "type": "bool"
        }
      ],
      "stateMutability": "view",
      "type": "function"
    },
    {
      "inputs": [],
      "name": "symbol",
      "outputs": [
        {
          "internalType": "string",
          "name": "",
          "type": "string"
        }
      ],
      "stateMutability": "view",
      "type": "function"
    },
    {
      "inputs": [
        {
          "internalType": "uint256",
          "name": "index",
          "type": "uint256"
        }
      ],
      "name": "tokenByIndex",
      "outputs": [
        {
          "internalType": "uint256",
          "name": "",
          "type": "uint256"
        }
      ],
      "stateMutability": "view",
      "type": "function"
    },
    {
      "inputs": [
        {
          "internalType": "address",
          "name": "owner",
          "type": "address"
        },
        {
          "internalType": "uint256",
          "name": "index",
          "type": "uint256"
        }
      ],
      "name": "tokenOfOwnerByIndex",
      "outputs": [
        {
          "internalType": "uint256",
          "name": "",
          "type": "uint256"
        }
      ],
      "stateMutability": "view",
      "type": "function"
    },
    {
      "inputs": [
        {
          "internalType": "uint256",
          "name": "tokenId",
          "type": "uint256"
        }
      ],
      "name": "tokenURI",
      "outputs": [
        {
          "internalType": "string",
          "name": "",
          "type": "string"
        }
      ],
      "stateMutability": "view",
      "type": "function"
    },
    {
      "inputs": [],
      "name": "totalSupply",
      "outputs": [
        {
          "internalType": "uint256",
          "name": "",
          "type": "uint256"
        }
      ],
      "stateMutability": "view",
      "type": "function"
    },
    {
      "inputs": [
        {
          "internalType": "address",
          "name": "from",
          "type": "address"
        },
        {
          "internalType": "address",
          "name": "to",
          "type": "address"
        },
        {
          "internalType": "uint256",
          "name": "tokenId",
          "type": "uint256"
        }
      ],
      "name": "transferFrom",
      "outputs": [],
      "stateMutability": "nonpayable",
      "type": "function"
    }
  ],
  "bytecode": "0x60806040523480156200001157600080fd5b5060405162001a6e38038062001a6e8339810160408190526200003491620001cb565b8151829082906200004d9060009060208501906200006e565b508051620000639060019060208401906200006e565b505050505062000288565b8280546200007c9062000235565b90600052602060002090601f016020900481019282620000a05760008555620000eb565b82601f10620000bb57805160ff1916838001178555620000eb565b82800160010185558215620000eb579182015b82811115620000eb578251825591602001919060010190620000ce565b50620000f9929150620000fd565b5090565b5b80821115620000f95760008155600101620000fe565b600082601f8301126200012657600080fd5b81516001600160401b038082111562000143576200014362000272565b604051601f8301601f19908116603f011681019082821181831017156200016e576200016e62000272565b816040528381526020925086838588010111156200018b57600080fd5b600091505b83821015620001af578582018301518183018401529082019062000190565b83821115620001c15760008385830101525b9695505050505050565b60008060408385031215620001df57600080fd5b82516001600160401b0380821115620001f757600080fd5b620002058683870162000114565b935060208501519150808211156200021c57600080fd5b506200022b8582860162000114565b9150509250929050565b600181811c908216806200024a57607f821691505b602082108114156200026c57634e487b7160e01b600052602260045260246000fd5b50919050565b634e487b7160e01b600052604160045260246000fd5b6117d680620002986000396000f3fe608060405234801561001057600080fd5b506004361061010b5760003560e01c806342842e0e116100a257806395d89b411161007157806395d89b4114610224578063a22cb4651461022c578063b88d4fde1461023f578063c87b56dd14610252578063e985e9c51461026557600080fd5b806342842e0e146101d85780634f6ccce7146101eb5780636352211e146101fe57806370a082311461021157600080fd5b806318160ddd116100de57806318160ddd1461018d57806323b872dd1461019f5780632f745c59146101b257806340c10f19146101c557600080fd5b806301ffc9a71461011057806306fdde0314610138578063081812fc1461014d578063095ea7b314610178575b600080fd5b61012361011e36600461149f565b6102a1565b60405190151581526020015b60405180910390f35b6101406102cc565b60405161012f919061158a565b61016061015b3660046114d9565b61035e565b6040516001600160a01b03909116815260200161012f565b61018b610186366004611475565b6103f8565b005b6008545b60405190815260200161012f565b61018b6101ad366004611321565b61050e565b6101916101c0366004611475565b61053f565b61018b6101d3366004611475565b6105d5565b61018b6101e6366004611321565b6105e3565b6101916101f93660046114d9565b6105fe565b61016061020c3660046114d9565b610691565b61019161021f3660046112d3565b610708565b61014061078f565b61018b61023a366004611439565b61079e565b61018b61024d36600461135d565b610863565b6101406102603660046114d9565b61089b565b6101236102733660046112ee565b6001600160a01b03918216600090815260056020908152604080832093909416825291909152205460ff1690565b60006001600160e01b0319821663780e9d6360e01b14806102c657506102c682610983565b92915050565b6060600080546102db906116af565b80601f0160208091040260200160405190810160405280929190818152602001828054610307906116af565b80156103545780601f1061032957610100808354040283529160200191610354565b820191906000526020600020905b81548152906001019060200180831161033757829003601f168201915b5050505050905090565b6000818152600260205260408120546001600160a01b03166103dc5760405162461bcd60e51b815260206004820152602c60248201527f4552433732313a20617070726f76656420717565727920666f72206e6f6e657860448201526b34b9ba32b73a103a37b5b2b760a11b60648201526084015b60405180910390fd5b506000908152600460205260409020546001600160a01b031690565b600061040382610691565b9050806001600160a01b0316836001600160a01b031614156104715760405162461bcd60e51b815260206004820152602160248201527f4552433732313a20617070726f76616c20746f2063757272656e74206f776e656044820152603960f91b60648201526084016103d3565b336001600160a01b038216148061048d575061048d8133610273565b6104ff5760405162461bcd60e51b815260206004820152603860248201527f4552433732313a20617070726f76652063616c6c6572206973206e6f74206f7760448201527f6e6572206e6f7220617070726f76656420666f7220616c6c000000000000000060648201526084016103d3565b61050983836109d3565b505050565b6105183382610a41565b6105345760405162461bcd60e51b81526004016103d3906115ef565b610509838383610b38565b600061054a83610708565b82106105ac5760405162461bcd60e51b815260206004820152602b60248201527f455243373231456e756d657261626c653a206f776e657220696e646578206f7560448201526a74206f6620626f756e647360a81b60648201526084016103d3565b506001600160a01b03919091166000908152600660209081526040808320938352929052205490565b6105df8282610ce3565b5050565b61050983838360405180602001604052806000815250610863565b600061060960085490565b821061066c5760405162461bcd60e51b815260206004820152602c60248201527f455243373231456e756d657261626c653a20676c6f62616c20696e646578206f60448201526b7574206f6620626f756e647360a01b60648201526084016103d3565b6008828154811061067f5761067f61175b565b90600052602060002001549050919050565b6000818152600260205260408120546001600160a01b0316806102c65760405162461bcd60e51b815260206004820152602960248201527f4552433732313a206f776e657220717565727920666f72206e6f6e657869737460448201526832b73a103a37b5b2b760b91b60648201526084016103d3565b60006001600160a01b0382166107735760405162461bcd60e51b815260206004820152602a60248201527f4552433732313a2062616c616e636520717565727920666f7220746865207a65604482015269726f206164647265737360b01b60648201526084016103d3565b506001600160a01b031660009081526003602052604090205490565b6060600180546102db906116af565b6001600160a01b0382163314156107f75760405162461bcd60e51b815260206004820152601960248201527f4552433732313a20617070726f766520746f2063616c6c65720000000000000060448201526064016103d3565b3360008181526005602090815260408083206001600160a01b03871680855290835292819020805460ff191686151590811790915590519081529192917f17307eab39ab6107e8899845ad3d59bd9653f200f220920489ca2b5937696c31910160405180910390a35050565b61086d3383610a41565b6108895760405162461bcd60e51b81526004016103d3906115ef565b61089584848484610e31565b50505050565b6000818152600260205260409020546060906001600160a01b031661091a5760405162461bcd60e51b815260206004820152602f60248201527f4552433732314d657461646174613a2055524920717565727920666f72206e6f60448201526e3732bc34b9ba32b73a103a37b5b2b760891b60648201526084016103d3565b600061093160408051602081019091526000815290565b90506000815111610951576040518060200160405280600081525061097c565b8061095b84610e64565b60405160200161096c92919061151e565b6040516020818303038152906040525b9392505050565b60006001600160e01b031982166380ac58cd60e01b14806109b457506001600160e01b03198216635b5e139f60e01b145b806102c657506301ffc9a760e01b6001600160e01b03198316146102c6565b600081815260046020526040902080546001600160a01b0319166001600160a01b0384169081179091558190610a0882610691565b6001600160a01b03167f8c5be1e5ebec7d5bd14f71427d1e84f3dd0314c0f7b2291e5b200ac8c7c3b92560405160405180910390a45050565b6000818152600260205260408120546001600160a01b0316610aba5760405162461bcd60e51b815260206004820152602c60248201527f4552433732313a206f70657261746f7220717565727920666f72206e6f6e657860448201526b34b9ba32b73a103a37b5b2b760a11b60648201526084016103d3565b6000610ac583610691565b9050806001600160a01b0316846001600160a01b03161480610b005750836001600160a01b0316610af58461035e565b6001600160a01b0316145b80610b3057506001600160a01b0380821660009081526005602090815260408083209388168352929052205460ff165b949350505050565b826001600160a01b0316610b4b82610691565b6001600160a01b031614610bb35760405162461bcd60e51b815260206004820152602960248201527f4552433732313a207472616e73666572206f6620746f6b656e2074686174206960448201526839903737ba1037bbb760b91b60648201526084016103d3565b6001600160a01b038216610c155760405162461bcd60e51b8152602060048201526024808201527f4552433732313a207472616e7366657220746f20746865207a65726f206164646044820152637265737360e01b60648201526084016103d3565b610c20838383610f62565b610c2b6000826109d3565b6001600160a01b0383166000908152600360205260408120805460019290610c5490849061166c565b90915550506001600160a01b0382166000908152600360205260408120805460019290610c82908490611640565b909155505060008181526002602052604080822080546001600160a01b0319166001600160a01b0386811691821790925591518493918716917fddf252ad1be2c89b69c2b068fc378daa952ba7f163c4a11628f55a4df523b3ef91a4505050565b6001600160a01b038216610d395760405162461bcd60e51b815260206004820181905260248201527f4552433732313a206d696e7420746f20746865207a65726f206164647265737360448201526064016103d3565b6000818152600260205260409020546001600160a01b031615610d9e5760405162461bcd60e51b815260206004820152601c60248201527f4552433732313a20746f6b656e20616c7265616479206d696e7465640000000060448201526064016103d3565b610daa60008383610f62565b6001600160a01b0382166000908152600360205260408120805460019290610dd3908490611640565b909155505060008181526002602052604080822080546001600160a01b0319166001600160a01b03861690811790915590518392907fddf252ad1be2c89b69c2b068fc378daa952ba7f163c4a11628f55a4df523b3ef908290a45050565b610e3c848484610b38565b610e488484848461101a565b6108955760405162461bcd60e51b81526004016103d39061159d565b606081610e885750506040805180820190915260018152600360fc1b602082015290565b8160005b8115610eb25780610e9c816116ea565b9150610eab9050600a83611658565b9150610e8c565b60008167ffffffffffffffff811115610ecd57610ecd611771565b6040519080825280601f01601f191660200182016040528015610ef7576020820181803683370190505b5090505b8415610b3057610f0c60018361166c565b9150610f19600a86611705565b610f24906030611640565b60f81b818381518110610f3957610f3961175b565b60200101906001600160f81b031916908160001a905350610f5b600a86611658565b9450610efb565b6001600160a01b038316610fbd57610fb881600880546000838152600960205260408120829055600182018355919091527ff3f7a9fe364faab93b216da50a3214154f22a0a2b415b23a84c8169e8b636ee30155565b610fe0565b816001600160a01b0316836001600160a01b031614610fe057610fe08382611127565b6001600160a01b038216610ff757610509816111c4565b826001600160a01b0316826001600160a01b031614610509576105098282611273565b60006001600160a01b0384163b1561111c57604051630a85bd0160e11b81526001600160a01b0385169063150b7a029061105e90339089908890889060040161154d565b602060405180830381600087803b15801561107857600080fd5b505af19250505080156110a8575060408051601f3d908101601f191682019092526110a5918101906114bc565b60015b611102573d8080156110d6576040519150601f19603f3d011682016040523d82523d6000602084013e6110db565b606091505b5080516110fa5760405162461bcd60e51b81526004016103d39061159d565b805181602001fd5b6001600160e01b031916630a85bd0160e11b149050610b30565b506001949350505050565b6000600161113484610708565b61113e919061166c565b600083815260076020526040902054909150808214611191576001600160a01b03841660009081526006602090815260408083208584528252808320548484528184208190558352600790915290208190555b5060009182526007602090815260408084208490556001600160a01b039094168352600681528383209183525290812055565b6008546000906111d69060019061166c565b600083815260096020526040812054600880549394509092849081106111fe576111fe61175b565b90600052602060002001549050806008838154811061121f5761121f61175b565b600091825260208083209091019290925582815260099091526040808220849055858252812055600880548061125757611257611745565b6001900381819060005260206000200160009055905550505050565b600061127e83610708565b6001600160a01b039093166000908152600660209081526040808320868452825280832085905593825260079052919091209190915550565b80356001600160a01b03811681146112ce57600080fd5b919050565b6000602082840312156112e557600080fd5b61097c826112b7565b6000806040838503121561130157600080fd5b61130a836112b7565b9150611318602084016112b7565b90509250929050565b60008060006060848603121561133657600080fd5b61133f846112b7565b925061134d602085016112b7565b9150604084013590509250925092565b6000806000806080858703121561137357600080fd5b61137c856112b7565b935061138a602086016112b7565b925060408501359150606085013567ffffffffffffffff808211156113ae57600080fd5b818701915087601f8301126113c257600080fd5b8135818111156113d4576113d4611771565b604051601f8201601f19908116603f011681019083821181831017156113fc576113fc611771565b816040528281528a602084870101111561141557600080fd5b82602086016020830137600060208483010152809550505050505092959194509250565b6000806040838503121561144c57600080fd5b611455836112b7565b91506020830135801515811461146a57600080fd5b809150509250929050565b6000806040838503121561148857600080fd5b611491836112b7565b946020939093013593505050565b6000602082840312156114b157600080fd5b813561097c81611787565b6000602082840312156114ce57600080fd5b815161097c81611787565b6000602082840312156114eb57600080fd5b5035919050565b6000815180845261150a816020860160208601611683565b601f01601f19169290920160200192915050565b60008351611530818460208801611683565b835190830190611544818360208801611683565b01949350505050565b6001600160a01b0385811682528416602082015260408101839052608060608201819052600090611580908301846114f2565b9695505050505050565b60208152600061097c60208301846114f2565b60208082526032908201527f4552433732313a207472616e7366657220746f206e6f6e20455243373231526560408201527131b2b4bb32b91034b6b83632b6b2b73a32b960711b606082015260800190565b60208082526031908201527f4552433732313a207472616e736665722063616c6c6572206973206e6f74206f6040820152701ddb995c881b9bdc88185c1c1c9bdd9959607a1b606082015260800190565b6000821982111561165357611653611719565b500190565b6000826116675761166761172f565b500490565b60008282101561167e5761167e611719565b500390565b60005b8381101561169e578181015183820152602001611686565b838111156108955750506000910152565b600181811c908216806116c357607f821691505b602082108114156116e457634e487b7160e01b600052602260045260246000fd5b50919050565b60006000198214156116fe576116fe611719565b5060010190565b6000826117145761171461172f565b500690565b634e487b7160e01b600052601160045260246000fd5b634e487b7160e01b600052601260045260246000fd5b634e487b7160e01b600052603160045260246000fd5b634e487b7160e01b600052603260045260246000fd5b634e487b7160e01b600052604160045260246000fd5b6001600160e01b03198116811461179d57600080fd5b5056fea26469706673582212201e3fd7d52dd62f955909c6684f7bdc676850cd0a6875d4c26fcaef91d148164964736f6c63430008060033",
  "linkReferences": {},
  "deployedLinkReferences": {}
}