{
  "_format": "hh-sol-artifact-1",
  "contractName": "TestToken721",
  "sourceName": "contracts/test/TestToken721.sol",
  "abi": [
    {
      "inputs": [
        {
          "internalType": "string",
          "name": "_name",
          "type": "string"
        },
        {
          "internalType": "string",
          "name": "_symbol",
          "type": "string"
        }
      ],
      "stateMutability": "nonpayable",
      "type": "constructor"
    },
    {
      "anonymous": false,
      "inputs": [
        {
          "indexed": true,
          "internalType": "address",
          "name": "owner",
          "type": "address"
        },
        {
          "indexed": true,
          "internalType": "address",
          "name": "approved",
          "type": "address"
        },
        {
          "indexed": true,
          "internalType": "uint256",
          "name": "tokenId",
          "type": "uint256"
        }
      ],
      "name": "Approval",
      "type": "event"
    },
    {
      "anonymous": false,
      "inputs": [
        {
          "indexed": true,
          "internalType": "address",
          "name": "owner",
          "type": "address"
        },
        {
          "indexed": true,
          "internalType": "address",
          "name": "operator",
          "type": "address"
        },
        {
          "indexed": false,
          "internalType": "bool",
          "name": "approved",
          "type": "bool"
        }
      ],
      "name": "ApprovalForAll",
      "type": "event"
    },
    {
      "anonymous": false,
      "inputs": [
        {
          "indexed": true,
          "internalType": "address",
          "name": "from",
          "type": "address"
        },
        {
          "indexed": true,
          "internalType": "address",
          "name": "to",
          "type": "address"
        },
        {
          "indexed": true,
          "internalType": "uint256",
          "name": "tokenId",
          "type": "uint256"
        }
      ],
      "name": "Transfer",
      "type": "event"
    },
    {
      "inputs": [
        {
          "internalType": "address",
          "name": "to",
          "type": "address"
        },
        {
          "internalType": "uint256",
          "name": "tokenId",
          "type": "uint256"
        }
      ],
      "name": "approve",
      "outputs": [],
      "stateMutability": "nonpayable",
      "type": "function"
    },
    {
      "inputs": [
        {
          "internalType": "address",
          "name": "owner",
          "type": "address"
        }
      ],
      "name": "balanceOf",
      "outputs": [
        {
          "internalType": "uint256",
          "name": "",
          "type": "uint256"
        }
      ],
      "stateMutability": "view",
      "type": "function"
    },
    {
      "inputs": [
        {
          "internalType": "uint256",
          "name": "tokenId",
          "type": "uint256"
        }
      ],
      "name": "getApproved",
      "outputs": [
        {
          "internalType": "address",
          "name": "",
          "type": "address"
        }
      ],
      "stateMutability": "view",
      "type": "function"
    },
    {
      "inputs": [
        {
          "internalType": "address",
          "name": "owner",
          "type": "address"
        },
        {
          "internalType": "address",
          "name": "operator",
          "type": "address"
        }
      ],
      "name": "isApprovedForAll",
      "outputs": [
        {
          "internalType": "bool",
          "name": "",
          "type": "bool"
        }
      ],
      "stateMutability": "view",
      "type": "function"
    },
    {
      "inputs": [
        {
          "internalType": "address",
          "name": "to",
          "type": "address"
        },
        {
          "internalType": "uint256",
          "name": "tokenId",
          "type": "uint256"
        }
      ],
      "name": "mint",
      "outputs": [],
      "stateMutability": "nonpayable",
      "type": "function"
    },
    {
      "inputs": [
        {
          "internalType": "address",
          "name": "to",
          "type": "address"
        },
        {
          "internalType": "uint256",
          "name": "tokenId",
          "type": "uint256"
        },
        {
          "internalType": "string",
          "name": "_tokenURI",
          "type": "string"
        }
      ],
      "name": "mintWithTokenURI",
      "outputs": [],
      "stateMutability": "nonpayable",
      "type": "function"
    },
    {
      "inputs": [],
      "name": "name",
      "outputs": [
        {
          "internalType": "string",
          "name": "",
          "type": "string"
        }
      ],
      "stateMutability": "view",
      "type": "function"
    },
    {
      "inputs": [
        {
          "internalType": "uint256",
          "name": "tokenId",
          "type": "uint256"
        }
      ],
      "name": "ownerOf",
      "outputs": [
        {
          "internalType": "address",
          "name": "",
          "type": "address"
        }
      ],
      "stateMutability": "view",
      "type": "function"
    },
    {
      "inputs": [
        {
          "internalType": "address",
          "name": "from",
          "type": "address"
        },
        {
          "internalType": "address",
          "name": "to",
          "type": "address"
        },
        {
          "internalType": "uint256",
          "name": "tokenId",
          "type": "uint256"
        }
      ],
      "name": "safeTransferFrom",
      "outputs": [],
      "stateMutability": "nonpayable",
      "type": "function"
    },
    {
      "inputs": [
        {
          "internalType": "address",
          "name": "from",
          "type": "address"
        },
        {
          "internalType": "address",
          "name": "to",
          "type": "address"
        },
        {
          "internalType": "uint256",
          "name": "tokenId",
          "type": "uint256"
        },
        {
          "internalType": "bytes",
          "name": "_data",
          "type": "bytes"
        }
      ],
      "name": "safeTransferFrom",
      "outputs": [],
      "stateMutability": "nonpayable",
      "type": "function"
    },
    {
      "inputs": [
        {
          "internalType": "address",
          "name": "operator",
          "type": "address"
        },
        {
          "internalType": "bool",
          "name": "approved",
          "type": "bool"
        }
      ],
      "name": "setApprovalForAll",
      "outputs": [],
      "stateMutability": "nonpayable",
      "type": "function"
    },
    {
      "inputs": [
        {
          "internalType": "bytes4",
          "name": "interfaceId",
          "type": "bytes4"
        }
      ],
      "name": "supportsInterface",
      "outputs": [
        {
          "internalType": "bool",
          "name": "",
          "type": "bool"
        }
      ],
      "stateMutability": "view",
      "type": "function"
    },
    {
      "inputs": [],
      "name": "symbol",
      "outputs": [
        {
          "internalType": "string",
          "name": "",
          "type": "string"
        }
      ],
      "stateMutability": "view",
      "type": "function"
    },
    {
      "inputs": [
        {
          "internalType": "uint256",
          "name": "tokenId",
          "type": "uint256"
        }
      ],
      "name": "tokenURI",
      "outputs": [
        {
          "internalType": "string",
          "name": "",
          "type": "string"
        }
      ],
      "stateMutability": "view",
      "type": "function"
    },
    {
      "inputs": [
        {
          "internalType": "address",
          "name": "from",
          "type": "address"
        },
        {
          "internalType": "address",
          "name": "to",
          "type": "address"
        },
        {
          "internalType": "uint256",
          "name": "tokenId",
          "type": "uint256"
        }
      ],
      "name": "transferFrom",
      "outputs": [],
      "stateMutability": "nonpayable",
      "type": "function"
    }
  ],
  "bytecode": "0x60806040523480156200001157600080fd5b506040516200198a3803806200198a8339810160408190526200003491620001cb565b8151829082906200004d9060009060208501906200006e565b508051620000639060019060208401906200006e565b505050505062000288565b8280546200007c9062000235565b90600052602060002090601f016020900481019282620000a05760008555620000eb565b82601f10620000bb57805160ff1916838001178555620000eb565b82800160010185558215620000eb579182015b82811115620000eb578251825591602001919060010190620000ce565b50620000f9929150620000fd565b5090565b5b80821115620000f95760008155600101620000fe565b600082601f8301126200012657600080fd5b81516001600160401b038082111562000143576200014362000272565b604051601f8301601f19908116603f011681019082821181831017156200016e576200016e62000272565b816040528381526020925086838588010111156200018b57600080fd5b600091505b83821015620001af578582018301518183018401529082019062000190565b83821115620001c15760008385830101525b9695505050505050565b60008060408385031215620001df57600080fd5b82516001600160401b0380821115620001f757600080fd5b620002058683870162000114565b935060208501519150808211156200021c57600080fd5b506200022b8582860162000114565b9150509250929050565b600181811c908216806200024a57607f821691505b602082108114156200026c57634e487b7160e01b600052602260045260246000fd5b50919050565b634e487b7160e01b600052604160045260246000fd5b6116f280620002986000396000f3fe608060405234801561001057600080fd5b50600436106100f55760003560e01c806350bb4e7f11610097578063a22cb46511610066578063a22cb465146101ff578063b88d4fde14610212578063c87b56dd14610225578063e985e9c51461023857600080fd5b806350bb4e7f146101b05780636352211e146101c357806370a08231146101d657806395d89b41146101f757600080fd5b8063095ea7b3116100d3578063095ea7b31461016257806323b872dd1461017757806340c10f191461018a57806342842e0e1461019d57600080fd5b806301ffc9a7146100fa57806306fdde0314610122578063081812fc14610137575b600080fd5b61010d6101083660046113d1565b610274565b60405190151581526020015b60405180910390f35b61012a6102c6565b60405161011991906114bc565b61014a61014536600461140b565b610358565b6040516001600160a01b039091168152602001610119565b61017561017036600461133c565b6103e5565b005b610175610185366004611248565b6104fb565b61017561019836600461133c565b61052c565b6101756101ab366004611248565b61053a565b6101756101be366004611366565b610555565b61014a6101d136600461140b565b610569565b6101e96101e43660046111fa565b6105e0565b604051908152602001610119565b61012a610667565b61017561020d366004611300565b610676565b610175610220366004611284565b61073b565b61012a61023336600461140b565b610773565b61010d610246366004611215565b6001600160a01b03918216600090815260056020908152604080832093909416825291909152205460ff1690565b60006001600160e01b031982166380ac58cd60e01b14806102a557506001600160e01b03198216635b5e139f60e01b145b806102c057506301ffc9a760e01b6001600160e01b03198316145b92915050565b6060600080546102d5906115e1565b80601f0160208091040260200160405190810160405280929190818152602001828054610301906115e1565b801561034e5780601f106103235761010080835404028352916020019161034e565b820191906000526020600020905b81548152906001019060200180831161033157829003601f168201915b5050505050905090565b6000610363826108ea565b6103c95760405162461bcd60e51b815260206004820152602c60248201527f4552433732313a20617070726f76656420717565727920666f72206e6f6e657860448201526b34b9ba32b73a103a37b5b2b760a11b60648201526084015b60405180910390fd5b506000908152600460205260409020546001600160a01b031690565b60006103f082610569565b9050806001600160a01b0316836001600160a01b0316141561045e5760405162461bcd60e51b815260206004820152602160248201527f4552433732313a20617070726f76616c20746f2063757272656e74206f776e656044820152603960f91b60648201526084016103c0565b336001600160a01b038216148061047a575061047a8133610246565b6104ec5760405162461bcd60e51b815260206004820152603860248201527f4552433732313a20617070726f76652063616c6c6572206973206e6f74206f7760448201527f6e6572206e6f7220617070726f76656420666f7220616c6c000000000000000060648201526084016103c0565b6104f68383610907565b505050565b6105053382610975565b6105215760405162461bcd60e51b81526004016103c090611521565b6104f6838383610a5b565b6105368282610bfb565b5050565b6104f68383836040518060200160405280600081525061073b565b61055f838361052c565b6104f68282610d2e565b6000818152600260205260408120546001600160a01b0316806102c05760405162461bcd60e51b815260206004820152602960248201527f4552433732313a206f776e657220717565727920666f72206e6f6e657869737460448201526832b73a103a37b5b2b760b91b60648201526084016103c0565b60006001600160a01b03821661064b5760405162461bcd60e51b815260206004820152602a60248201527f4552433732313a2062616c616e636520717565727920666f7220746865207a65604482015269726f206164647265737360b01b60648201526084016103c0565b506001600160a01b031660009081526003602052604090205490565b6060600180546102d5906115e1565b6001600160a01b0382163314156106cf5760405162461bcd60e51b815260206004820152601960248201527f4552433732313a20617070726f766520746f2063616c6c65720000000000000060448201526064016103c0565b3360008181526005602090815260408083206001600160a01b03871680855290835292819020805460ff191686151590811790915590519081529192917f17307eab39ab6107e8899845ad3d59bd9653f200f220920489ca2b5937696c31910160405180910390a35050565b6107453383610975565b6107615760405162461bcd60e51b81526004016103c090611521565b61076d84848484610db9565b50505050565b606061077e826108ea565b6107e45760405162461bcd60e51b815260206004820152603160248201527f45524337323155524953746f726167653a2055524920717565727920666f72206044820152703737b732bc34b9ba32b73a103a37b5b2b760791b60648201526084016103c0565b600082815260066020526040812080546107fd906115e1565b80601f0160208091040260200160405190810160405280929190818152602001828054610829906115e1565b80156108765780601f1061084b57610100808354040283529160200191610876565b820191906000526020600020905b81548152906001019060200180831161085957829003601f168201915b50505050509050600061089460408051602081019091526000815290565b90508051600014156108a7575092915050565b8151156108d95780826040516020016108c1929190611450565b60405160208183030381529060405292505050919050565b6108e284610dec565b949350505050565b6000908152600260205260409020546001600160a01b0316151590565b600081815260046020526040902080546001600160a01b0319166001600160a01b038416908117909155819061093c82610569565b6001600160a01b03167f8c5be1e5ebec7d5bd14f71427d1e84f3dd0314c0f7b2291e5b200ac8c7c3b92560405160405180910390a45050565b6000610980826108ea565b6109e15760405162461bcd60e51b815260206004820152602c60248201527f4552433732313a206f70657261746f7220717565727920666f72206e6f6e657860448201526b34b9ba32b73a103a37b5b2b760a11b60648201526084016103c0565b60006109ec83610569565b9050806001600160a01b0316846001600160a01b03161480610a275750836001600160a01b0316610a1c84610358565b6001600160a01b0316145b806108e257506001600160a01b0380821660009081526005602090815260408083209388168352929052205460ff166108e2565b826001600160a01b0316610a6e82610569565b6001600160a01b031614610ad65760405162461bcd60e51b815260206004820152602960248201527f4552433732313a207472616e73666572206f6620746f6b656e2074686174206960448201526839903737ba1037bbb760b91b60648201526084016103c0565b6001600160a01b038216610b385760405162461bcd60e51b8152602060048201526024808201527f4552433732313a207472616e7366657220746f20746865207a65726f206164646044820152637265737360e01b60648201526084016103c0565b610b43600082610907565b6001600160a01b0383166000908152600360205260408120805460019290610b6c90849061159e565b90915550506001600160a01b0382166000908152600360205260408120805460019290610b9a908490611572565b909155505060008181526002602052604080822080546001600160a01b0319166001600160a01b0386811691821790925591518493918716917fddf252ad1be2c89b69c2b068fc378daa952ba7f163c4a11628f55a4df523b3ef91a4505050565b6001600160a01b038216610c515760405162461bcd60e51b815260206004820181905260248201527f4552433732313a206d696e7420746f20746865207a65726f206164647265737360448201526064016103c0565b610c5a816108ea565b15610ca75760405162461bcd60e51b815260206004820152601c60248201527f4552433732313a20746f6b656e20616c7265616479206d696e7465640000000060448201526064016103c0565b6001600160a01b0382166000908152600360205260408120805460019290610cd0908490611572565b909155505060008181526002602052604080822080546001600160a01b0319166001600160a01b03861690811790915590518392907fddf252ad1be2c89b69c2b068fc378daa952ba7f163c4a11628f55a4df523b3ef908290a45050565b610d37826108ea565b610d9a5760405162461bcd60e51b815260206004820152602e60248201527f45524337323155524953746f726167653a2055524920736574206f66206e6f6e60448201526d32bc34b9ba32b73a103a37b5b2b760911b60648201526084016103c0565b600082815260066020908152604090912082516104f6928401906110cf565b610dc4848484610a5b565b610dd084848484610ec4565b61076d5760405162461bcd60e51b81526004016103c0906114cf565b6060610df7826108ea565b610e5b5760405162461bcd60e51b815260206004820152602f60248201527f4552433732314d657461646174613a2055524920717565727920666f72206e6f60448201526e3732bc34b9ba32b73a103a37b5b2b760891b60648201526084016103c0565b6000610e7260408051602081019091526000815290565b90506000815111610e925760405180602001604052806000815250610ebd565b80610e9c84610fd1565b604051602001610ead929190611450565b6040516020818303038152906040525b9392505050565b60006001600160a01b0384163b15610fc657604051630a85bd0160e11b81526001600160a01b0385169063150b7a0290610f0890339089908890889060040161147f565b602060405180830381600087803b158015610f2257600080fd5b505af1925050508015610f52575060408051601f3d908101601f19168201909252610f4f918101906113ee565b60015b610fac573d808015610f80576040519150601f19603f3d011682016040523d82523d6000602084013e610f85565b606091505b508051610fa45760405162461bcd60e51b81526004016103c0906114cf565b805181602001fd5b6001600160e01b031916630a85bd0160e11b1490506108e2565b506001949350505050565b606081610ff55750506040805180820190915260018152600360fc1b602082015290565b8160005b811561101f57806110098161161c565b91506110189050600a8361158a565b9150610ff9565b60008167ffffffffffffffff81111561103a5761103a61168d565b6040519080825280601f01601f191660200182016040528015611064576020820181803683370190505b5090505b84156108e25761107960018361159e565b9150611086600a86611637565b611091906030611572565b60f81b8183815181106110a6576110a6611677565b60200101906001600160f81b031916908160001a9053506110c8600a8661158a565b9450611068565b8280546110db906115e1565b90600052602060002090601f0160209004810192826110fd5760008555611143565b82601f1061111657805160ff1916838001178555611143565b82800160010185558215611143579182015b82811115611143578251825591602001919060010190611128565b5061114f929150611153565b5090565b5b8082111561114f5760008155600101611154565b600067ffffffffffffffff808411156111835761118361168d565b604051601f8501601f19908116603f011681019082821181831017156111ab576111ab61168d565b816040528093508581528686860111156111c457600080fd5b858560208301376000602087830101525050509392505050565b80356001600160a01b03811681146111f557600080fd5b919050565b60006020828403121561120c57600080fd5b610ebd826111de565b6000806040838503121561122857600080fd5b611231836111de565b915061123f602084016111de565b90509250929050565b60008060006060848603121561125d57600080fd5b611266846111de565b9250611274602085016111de565b9150604084013590509250925092565b6000806000806080858703121561129a57600080fd5b6112a3856111de565b93506112b1602086016111de565b925060408501359150606085013567ffffffffffffffff8111156112d457600080fd5b8501601f810187136112e557600080fd5b6112f487823560208401611168565b91505092959194509250565b6000806040838503121561131357600080fd5b61131c836111de565b91506020830135801515811461133157600080fd5b809150509250929050565b6000806040838503121561134f57600080fd5b611358836111de565b946020939093013593505050565b60008060006060848603121561137b57600080fd5b611384846111de565b925060208401359150604084013567ffffffffffffffff8111156113a757600080fd5b8401601f810186136113b857600080fd5b6113c786823560208401611168565b9150509250925092565b6000602082840312156113e357600080fd5b8135610ebd816116a3565b60006020828403121561140057600080fd5b8151610ebd816116a3565b60006020828403121561141d57600080fd5b5035919050565b6000815180845261143c8160208601602086016115b5565b601f01601f19169290920160200192915050565b600083516114628184602088016115b5565b8351908301906114768183602088016115b5565b01949350505050565b6001600160a01b03858116825284166020820152604081018390526080606082018190526000906114b290830184611424565b9695505050505050565b602081526000610ebd6020830184611424565b60208082526032908201527f4552433732313a207472616e7366657220746f206e6f6e20455243373231526560408201527131b2b4bb32b91034b6b83632b6b2b73a32b960711b606082015260800190565b60208082526031908201527f4552433732313a207472616e736665722063616c6c6572206973206e6f74206f6040820152701ddb995c881b9bdc88185c1c1c9bdd9959607a1b606082015260800190565b600082198211156115855761158561164b565b500190565b60008261159957611599611661565b500490565b6000828210156115b0576115b061164b565b500390565b60005b838110156115d05781810151838201526020016115b8565b8381111561076d5750506000910152565b600181811c908216806115f557607f821691505b6020821081141561161657634e487b7160e01b600052602260045260246000fd5b50919050565b60006000198214156116305761163061164b565b5060010190565b60008261164657611646611661565b500690565b634e487b7160e01b600052601160045260246000fd5b634e487b7160e01b600052601260045260246000fd5b634e487b7160e01b600052603260045260246000fd5b634e487b7160e01b600052604160045260246000fd5b6001600160e01b0319811681146116b957600080fd5b5056fea2646970667358221220d5d9666211786f40db4bfce68bb650290ebb2c3f8969d3101016c08d5447ba9964736f6c63430008060033",
  "linkReferences": {},
  "deployedLinkReferences": {}
}