{
  "address": "0x992B9df075935E522EC7950F37eC8557e86f6fdb",
  "abi": [
    {
      "inputs": [
        {
          "internalType": "uint256[]",
          "name": "self",
          "type": "uint256[]"
        }
      ],
      "name": "countSetBits",
      "outputs": [
        {
          "internalType": "uint256",
          "name": "",
          "type": "uint256"
        }
      ],
      "stateMutability": "pure",
      "type": "function"
    },
    {
      "inputs": [
        {
          "internalType": "uint256[]",
          "name": "bitsToSet",
          "type": "uint256[]"
        },
        {
          "internalType": "uint256",
          "name": "length",
          "type": "uint256"
        }
      ],
      "name": "createBitfield",
      "outputs": [
        {
          "internalType": "uint256[]",
          "name": "bitfield",
          "type": "uint256[]"
        }
      ],
      "stateMutability": "pure",
      "type": "function"
    },
    {
      "inputs": [
        {
          "internalType": "uint256",
          "name": "seed",
          "type": "uint256"
        },
        {
          "internalType": "uint256[]",
          "name": "prior",
          "type": "uint256[]"
        },
        {
          "internalType": "uint256",
          "name": "n",
          "type": "uint256"
        },
        {
          "internalType": "uint256",
          "name": "length",
          "type": "uint256"
        }
      ],
      "name": "randomNBitsWithPriorCheck",
      "outputs": [
        {
          "internalType": "uint256[]",
          "name": "bitfield",
          "type": "uint256[]"
        }
      ],
      "stateMutability": "pure",
      "type": "function"
    }
  ],
  "transactionHash": "0x6745829898ede31d6db1a44faf59445ff3b56bb0b0691bb841a3ac5b29a01e6c",
  "args": [],
  "solcInputHash": "4c5f7479fbcbb8f587221b3596eb14de",
  "bytecode": "0x61093661003a600b82828239805160001a60731461002d57634e487b7160e01b600052600060045260246000fd5b30600052607381538281f3fe730000000000000000000000000000000000000000301460806040526004361061004b5760003560e01c80635243425814610050578063532c8220146100795780636a4e06631461009a575b600080fd5b61006361005e3660046106fa565b6100ad565b6040516100709190610809565b60405180910390f35b61008c610087366004610775565b610158565b604051908152602001610070565b6100636100a83660046107b2565b610409565b606060006101006100bf8460ff61084d565b6100c99190610865565b90508067ffffffffffffffff8111156100e4576100e46108ea565b60405190808252806020026020018201604052801561010d578160200160208202803683370190505b50915060005b8481101561014f5761013d83878784818110610131576101316108d4565b90506020020135610575565b8061014781610879565b915050610113565b50509392505050565b600080805b835181101561040257600084828151811061017a5761017a6108d4565b602002602001015190507f5555555555555555555555555555555555555555555555555555555555555555600182901c167f555555555555555555555555555555555555555555555555555555555555555582166101d8919061084d565b90507f3333333333333333333333333333333333333333333333333333333333333333600282901c167f3333333333333333333333333333333333333333333333333333333333333333821661022e919061084d565b90507f0f0f0f0f0f0f0f0f0f0f0f0f0f0f0f0f0f0f0f0f0f0f0f0f0f0f0f0f0f0f0f0f600482901c167f0f0f0f0f0f0f0f0f0f0f0f0f0f0f0f0f0f0f0f0f0f0f0f0f0f0f0f0f0f0f0f0f8216610284919061084d565b90507eff00ff00ff00ff00ff00ff00ff00ff00ff00ff00ff00ff00ff00ff00ff00ff600882901c167eff00ff00ff00ff00ff00ff00ff00ff00ff00ff00ff00ff00ff00ff00ff00ff82166102d8919061084d565b90507dffff0000ffff0000ffff0000ffff0000ffff0000ffff0000ffff0000ffff601082901c167dffff0000ffff0000ffff0000ffff0000ffff0000ffff0000ffff0000ffff821661032a919061084d565b90507bffffffff00000000ffffffff00000000ffffffff00000000ffffffff602082901c167bffffffff00000000ffffffff00000000ffffffff00000000ffffffff8216610378919061084d565b905077ffffffffffffffff0000000000000000ffffffffffffffff604082901c1677ffffffffffffffff0000000000000000ffffffffffffffff82166103be919061084d565b90506103e0608082901c6fffffffffffffffffffffffffffffffff831661084d565b90506103ec818461084d565b92505080806103fa90610879565b91505061015d565b5092915050565b606061041484610158565b83111561047c5760405162461bcd60e51b815260206004820152602c60248201527f606e60206d757374206265203c3d206e756d626572206f66207365742062697460448201526b0399034b71030383934b7b9360a51b606482015260840160405180910390fd5b835167ffffffffffffffff811115610496576104966108ea565b6040519080825280602002602001820160405280156104bf578160200160208202803683370190505b5090506000805b8482101561056b5760006104da828961084d565b6040516020016104ec91815260200190565b60408051601f198184030181529190528051602090910120905060006105128683610894565b905061051e88826105e5565b610529575050610559565b61053385826105e5565b1561053f575050610559565b6105498582610575565b8361055381610879565b94505050505b8061056381610879565b9150506104c6565b5050949350505050565b600061058361010083610865565b9050600061059361010084610894565b90506105c1818584815181106105ab576105ab6108d4565b602002602001015161064290919063ffffffff16565b8483815181106105d3576105d36108d4565b60200260200101818152505050505050565b6000806105f461010084610865565b9050600061060461010085610894565b90506106328186848151811061061c5761061c6108d4565b602002602001015161064f90919063ffffffff16565b60ff166001149250505092915050565b600160ff919091161b1790565b60ff161c60011690565b600082601f83011261066a57600080fd5b8135602067ffffffffffffffff80831115610687576106876108ea565b8260051b604051601f19603f830116810181811084821117156106ac576106ac6108ea565b604052848152838101925086840182880185018910156106cb57600080fd5b600092505b858310156106ee5780358452928401926001929092019184016106d0565b50979650505050505050565b60008060006040848603121561070f57600080fd5b833567ffffffffffffffff8082111561072757600080fd5b818601915086601f83011261073b57600080fd5b81358181111561074a57600080fd5b8760208260051b850101111561075f57600080fd5b6020928301989097509590910135949350505050565b60006020828403121561078757600080fd5b813567ffffffffffffffff81111561079e57600080fd5b6107aa84828501610659565b949350505050565b600080600080608085870312156107c857600080fd5b84359350602085013567ffffffffffffffff8111156107e657600080fd5b6107f287828801610659565b949794965050505060408301359260600135919050565b6020808252825182820181905260009190848201906040850190845b8181101561084157835183529284019291840191600101610825565b50909695505050505050565b60008219821115610860576108606108a8565b500190565b600082610874576108746108be565b500490565b600060001982141561088d5761088d6108a8565b5060010190565b6000826108a3576108a36108be565b500690565b634e487b7160e01b600052601160045260246000fd5b634e487b7160e01b600052601260045260246000fd5b634e487b7160e01b600052603260045260246000fd5b634e487b7160e01b600052604160045260246000fdfea2646970667358221220a32b2ffe8c96c349fd3951a50b8bd48c7e20cf5079e866ce563f765dae0796cb64736f6c63430008060033",
  "devdoc": {
    "kind": "dev",
    "methods": {},
    "stateVariables": {
      "M1": {
        "details": "Constants used to efficiently calculate the hamming weight of a bitfield. See https://en.wikipedia.org/wiki/Hamming_weight#Efficient_implementation for an explanation of those constants."
      }
    },
    "version": 1
  },
  "userdoc": {
    "kind": "user",
    "methods": {
      "countSetBits(uint256[])": {
        "notice": "Calculates the number of set bits by using the hamming weight of the bitfield. The alogrithm below is implemented after https://en.wikipedia.org/wiki/Hamming_weight#Efficient_implementation. Further improvements are possible, see the article above."
      },
      "randomNBitsWithPriorCheck(uint256,uint256[],uint256,uint256)": {
        "notice": "Draws a random number, derives an index in the bitfield, and sets the bit if it is in the `prior` and not yet set. Repeats that `n` times."
      }
    },
    "version": 1
  },
  "storageLayout": {
    "storage": [],
    "types": null
  }
}