{
  "address": "0x83428c7db9815f482a39a1715684dCF755021997",
  "abi": [
    {
      "inputs": [
        {
          "internalType": "contract BeefyLightClient",
          "name": "_beefyLightClient",
          "type": "address"
        }
      ],
      "stateMutability": "nonpayable",
      "type": "constructor"
    },
    {
      "anonymous": false,
      "inputs": [
        {
          "indexed": false,
          "internalType": "uint64",
          "name": "nonce",
          "type": "uint64"
        },
        {
          "indexed": false,
          "internalType": "bool",
          "name": "result",
          "type": "bool"
        }
      ],
      "name": "MessageDispatched",
      "type": "event"
    },
    {
      "anonymous": false,
      "inputs": [
        {
          "indexed": true,
          "internalType": "bytes32",
          "name": "role",
          "type": "bytes32"
        },
        {
          "indexed": true,
          "internalType": "bytes32",
          "name": "previousAdminRole",
          "type": "bytes32"
        },
        {
          "indexed": true,
          "internalType": "bytes32",
          "name": "newAdminRole",
          "type": "bytes32"
        }
      ],
      "name": "RoleAdminChanged",
      "type": "event"
    },
    {
      "anonymous": false,
      "inputs": [
        {
          "indexed": true,
          "internalType": "bytes32",
          "name": "role",
          "type": "bytes32"
        },
        {
          "indexed": true,
          "internalType": "address",
          "name": "account",
          "type": "address"
        },
        {
          "indexed": true,
          "internalType": "address",
          "name": "sender",
          "type": "address"
        }
      ],
      "name": "RoleGranted",
      "type": "event"
    },
    {
      "anonymous": false,
      "inputs": [
        {
          "indexed": true,
          "internalType": "bytes32",
          "name": "role",
          "type": "bytes32"
        },
        {
          "indexed": true,
          "internalType": "address",
          "name": "account",
          "type": "address"
        },
        {
          "indexed": true,
          "internalType": "address",
          "name": "sender",
          "type": "address"
        }
      ],
      "name": "RoleRevoked",
      "type": "event"
    },
    {
      "inputs": [],
      "name": "CONFIG_UPDATE_ROLE",
      "outputs": [
        {
          "internalType": "bytes32",
          "name": "",
          "type": "bytes32"
        }
      ],
      "stateMutability": "view",
      "type": "function"
    },
    {
      "inputs": [],
      "name": "DEFAULT_ADMIN_ROLE",
      "outputs": [
        {
          "internalType": "bytes32",
          "name": "",
          "type": "bytes32"
        }
      ],
      "stateMutability": "view",
      "type": "function"
    },
    {
      "inputs": [],
      "name": "GAS_BUFFER",
      "outputs": [
        {
          "internalType": "uint256",
          "name": "",
          "type": "uint256"
        }
      ],
      "stateMutability": "view",
      "type": "function"
    },
    {
      "inputs": [],
      "name": "MAX_GAS_PER_MESSAGE",
      "outputs": [
        {
          "internalType": "uint256",
          "name": "",
          "type": "uint256"
        }
      ],
      "stateMutability": "view",
      "type": "function"
    },
    {
      "inputs": [],
      "name": "beefyLightClient",
      "outputs": [
        {
          "internalType": "contract BeefyLightClient",
          "name": "",
          "type": "address"
        }
      ],
      "stateMutability": "view",
      "type": "function"
    },
    {
      "inputs": [
        {
          "internalType": "bytes32",
          "name": "role",
          "type": "bytes32"
        }
      ],
      "name": "getRoleAdmin",
      "outputs": [
        {
          "internalType": "bytes32",
          "name": "",
          "type": "bytes32"
        }
      ],
      "stateMutability": "view",
      "type": "function"
    },
    {
      "inputs": [
        {
          "internalType": "bytes32",
          "name": "role",
          "type": "bytes32"
        },
        {
          "internalType": "address",
          "name": "account",
          "type": "address"
        }
      ],
      "name": "grantRole",
      "outputs": [],
      "stateMutability": "nonpayable",
      "type": "function"
    },
    {
      "inputs": [
        {
          "internalType": "bytes32",
          "name": "role",
          "type": "bytes32"
        },
        {
          "internalType": "address",
          "name": "account",
          "type": "address"
        }
      ],
      "name": "hasRole",
      "outputs": [
        {
          "internalType": "bool",
          "name": "",
          "type": "bool"
        }
      ],
      "stateMutability": "view",
      "type": "function"
    },
    {
      "inputs": [
        {
          "internalType": "address",
          "name": "_configUpdater",
          "type": "address"
        },
        {
          "internalType": "address",
          "name": "_rewardSource",
          "type": "address"
        }
      ],
      "name": "initialize",
      "outputs": [],
      "stateMutability": "nonpayable",
      "type": "function"
    },
    {
      "inputs": [],
      "name": "nonce",
      "outputs": [
        {
          "internalType": "uint64",
          "name": "",
          "type": "uint64"
        }
      ],
      "stateMutability": "view",
      "type": "function"
    },
    {
      "inputs": [
        {
          "internalType": "bytes32",
          "name": "role",
          "type": "bytes32"
        },
        {
          "internalType": "address",
          "name": "account",
          "type": "address"
        }
      ],
      "name": "renounceRole",
      "outputs": [],
      "stateMutability": "nonpayable",
      "type": "function"
    },
    {
      "inputs": [
        {
          "internalType": "bytes32",
          "name": "role",
          "type": "bytes32"
        },
        {
          "internalType": "address",
          "name": "account",
          "type": "address"
        }
      ],
      "name": "revokeRole",
      "outputs": [],
      "stateMutability": "nonpayable",
      "type": "function"
    },
    {
      "inputs": [
        {
          "components": [
            {
              "internalType": "address",
              "name": "target",
              "type": "address"
            },
            {
              "internalType": "uint64",
              "name": "nonce",
              "type": "uint64"
            },
            {
              "internalType": "uint128",
              "name": "fee",
              "type": "uint128"
            },
            {
              "internalType": "bytes",
              "name": "payload",
              "type": "bytes"
            }
          ],
          "internalType": "struct IncentivizedInboundChannel.Message[]",
          "name": "_messages",
          "type": "tuple[]"
        },
        {
          "components": [
            {
              "internalType": "bytes",
              "name": "ownParachainHeadPrefixBytes",
              "type": "bytes"
            },
            {
              "internalType": "bytes",
              "name": "ownParachainHeadSuffixBytes",
              "type": "bytes"
            },
            {
              "components": [
                {
                  "internalType": "uint256",
                  "name": "pos",
                  "type": "uint256"
                },
                {
                  "internalType": "uint256",
                  "name": "width",
                  "type": "uint256"
                },
                {
                  "internalType": "bytes32[]",
                  "name": "proof",
                  "type": "bytes32[]"
                }
              ],
              "internalType": "struct ParachainLightClient.ParachainHeadProof",
              "name": "parachainHeadProof",
              "type": "tuple"
            }
          ],
          "internalType": "struct ParachainLightClient.ParachainVerifyInput",
          "name": "_parachainVerifyInput",
          "type": "tuple"
        },
        {
          "components": [
            {
              "internalType": "uint8",
              "name": "version",
              "type": "uint8"
            },
            {
              "internalType": "uint32",
              "name": "parentNumber",
              "type": "uint32"
            },
            {
              "internalType": "bytes32",
              "name": "parentHash",
              "type": "bytes32"
            },
            {
              "internalType": "uint64",
              "name": "nextAuthoritySetId",
              "type": "uint64"
            },
            {
              "internalType": "uint32",
              "name": "nextAuthoritySetLen",
              "type": "uint32"
            },
            {
              "internalType": "bytes32",
              "name": "nextAuthoritySetRoot",
              "type": "bytes32"
            }
          ],
          "internalType": "struct ParachainLightClient.BeefyMMRLeafPartial",
          "name": "_beefyMMRLeafPartial",
          "type": "tuple"
        },
        {
          "components": [
            {
              "internalType": "bytes32[]",
              "name": "merkleProofItems",
              "type": "bytes32[]"
            },
            {
              "internalType": "uint64",
              "name": "merkleProofOrderBitField",
              "type": "uint64"
            }
          ],
          "internalType": "struct SimplifiedMMRProof",
          "name": "proof",
          "type": "tuple"
        }
      ],
      "name": "submit",
      "outputs": [],
      "stateMutability": "nonpayable",
      "type": "function"
    },
    {
      "inputs": [
        {
          "internalType": "bytes4",
          "name": "interfaceId",
          "type": "bytes4"
        }
      ],
      "name": "supportsInterface",
      "outputs": [
        {
          "internalType": "bool",
          "name": "",
          "type": "bool"
        }
      ],
      "stateMutability": "view",
      "type": "function"
    }
  ],
  "transactionHash": "0x20a68042676715667b6b3bd6c1b8d4a9ad19feeece765f3aaa1d6f78dbd74a0d",
  "args": [
    "0x87d1f7fdfEe7f651FaBc8bFCB6E086C278b77A7d"
  ],
  "solcInputHash": "4c5f7479fbcbb8f587221b3596eb14de",
  "bytecode": "0x60806040523480156200001157600080fd5b506040516200198d3803806200198d833981016040819052620000349162000127565b6200004160003362000077565b600280546001600160a01b0319166001600160a01b0392909216919091179055600180546001600160401b031916905562000159565b62000083828262000087565b5050565b6000828152602081815260408083206001600160a01b038516845290915290205460ff1662000083576000828152602081815260408083206001600160a01b03851684529091529020805460ff19166001179055620000e33390565b6001600160a01b0316816001600160a01b0316837f2f8788117e7eff1d82e926ec794901d17c78024a50270940304540a733656f0d60405160405180910390a45050565b6000602082840312156200013a57600080fd5b81516001600160a01b03811681146200015257600080fd5b9392505050565b61182480620001696000396000f3fe608060405234801561001057600080fd5b50600436106100ea5760003560e01c8063a217fddf1161008c578063affed0e011610066578063affed0e0146101fa578063c7e6736014610225578063d547741f1461022e578063f148bf101461024157600080fd5b8063a217fddf146101a0578063a2d6c6e5146101a8578063af41c33e146101cf57600080fd5b806336568abe116100c857806336568abe1461015d578063485cc9551461017057806349bee5741461018357806391d148541461018d57600080fd5b806301ffc9a7146100ef578063248a9ca3146101175780632f2ff15d14610148575b600080fd5b6101026100fd3660046111ed565b610254565b60405190151581526020015b60405180910390f35b61013a610125366004611198565b60009081526020819052604090206001015490565b60405190815260200161010e565b61015b6101563660046111ca565b61028b565b005b61015b61016b3660046111ca565b6102b6565b61015b61017e36600461104a565b610339565b61013a620186a081565b61010261019b3660046111ca565b6103a3565b61013a600081565b61013a7f32e4cdbcd9c00d473129ed98a14e66b6f3434febcbfd293f5af182c102b315f781565b6002546101e2906001600160a01b031681565b6040516001600160a01b03909116815260200161010e565b60015461020d906001600160401b031681565b6040516001600160401b03909116815260200161010e565b61013a61ea6081565b61015b61023c3660046111ca565b6103cc565b61015b61024f36600461107d565b6103f2565b60006001600160e01b03198216637965db0b60e01b148061028557506301ffc9a760e01b6001600160e01b03198316145b92915050565b6000828152602081905260409020600101546102a781336104d3565b6102b18383610537565b505050565b6001600160a01b038116331461032b5760405162461bcd60e51b815260206004820152602f60248201527f416363657373436f6e74726f6c3a2063616e206f6e6c792072656e6f756e636560448201526e103937b632b9903337b91039b2b63360891b60648201526084015b60405180910390fd5b61033582826105bb565b5050565b600061034581336104d3565b61036f7f32e4cdbcd9c00d473129ed98a14e66b6f3434febcbfd293f5af182c102b315f78461028b565b6001805468010000000000000000600160e01b031916600160401b6001600160a01b038516021790556102b16000336102b6565b6000918252602082815260408084206001600160a01b0393909316845291905290205460ff1690565b6000828152602081905260409020600101546103e881336104d3565b6102b183836105bb565b600085856040516020016104079291906113f2565b60405160208183030381529060405280519060200120905061044181858585600260009054906101000a90046001600160a01b0316610620565b61ea60610451620186a087611712565b61045b91906116d8565b5a10156104c05760405162461bcd60e51b815260206004820152602d60248201527f696e73756666696369656e742067617320666f722064656c6976657279206f6660448201526c20616c6c206d6573736167657360981b6064820152608401610322565b6104cb3387876107e0565b505050505050565b6104dd82826103a3565b610335576104f5816001600160a01b03166014610aca565b610500836020610aca565b60405160200161051192919061137d565b60408051601f198184030181529082905262461bcd60e51b8252610322916004016115ae565b61054182826103a3565b610335576000828152602081815260408083206001600160a01b03851684529091529020805460ff191660011790556105773390565b6001600160a01b0316816001600160a01b0316837f2f8788117e7eff1d82e926ec794901d17c78024a50270940304540a733656f0d60405160405180910390a45050565b6105c582826103a3565b15610335576000828152602081815260408083206001600160a01b0385168085529252808320805460ff1916905551339285917ff6391f5c32d9c69d2a47ea670b442974b53935d1edc7fd64eb21e047a839171b9190a45050565b600061064261062f8680611631565b8861063d60208a018a611631565b610c6c565b9050600073D184c103F7acc340847eEE82a0B909E3358bc28d63407529498361066e60408a018a611697565b3561067c60408b018b611697565b6020013561068d60408c018c611697565b61069b9060408101906115e1565b6040518663ffffffff1660e01b81526004016106bb95949392919061157d565b60206040518083038186803b1580156106d357600080fd5b505af41580156106e7573d6000803e3d6000fd5b505050506040513d601f19601f8201168201806040525081019061070b91906111b1565b905060006107198683610cb4565b604051631693464f60e11b81529091506001600160a01b03851690632d268c9e9061074a90849089906004016114f9565b60206040518083038186803b15801561076257600080fd5b505afa158015610776573d6000803e3d6000fd5b505050506040513d601f19601f8201168201806040525081019061079a919061114c565b6107d65760405162461bcd60e51b815260206004820152600d60248201526c24b73b30b634b210383937b7b360991b6044820152606401610322565b5050505050505050565b6001546000906001600160401b0316815b83811015610a2b576108048260016116f0565b6001600160401b031685858381811061081f5761081f6117a9565b90506020028101906108319190611677565b610842906040810190602001611292565b6001600160401b0316146108885760405162461bcd60e51b815260206004820152600d60248201526c696e76616c6964206e6f6e636560981b6044820152606401610322565b6108938260016116f0565b915060008585838181106108a9576108a96117a9565b90506020028101906108bb9190611677565b6108c990602081019061102f565b6001600160a01b0316620186a060008888868181106108ea576108ea6117a9565b90506020028101906108fc9190611677565b61090a906060810190611631565b60405161091892919061136d565b600060405180830381858888f193505050503d8060008114610956576040519150601f19603f3d011682016040523d82523d6000602084013e61095b565b606091505b50509050858583818110610971576109716117a9565b90506020028101906109839190611677565b610994906060810190604001611251565b61099e90856116ad565b93507f504b093d860dc827c72a879d052fd8ac6b4c2af80c5f3a634654f172690bf10a8686848181106109d3576109d36117a9565b90506020028101906109e59190611677565b6109f6906040810190602001611292565b604080516001600160401b03909216825283151560208301520160405180910390a15080610a2381611778565b9150506107f1565b50600154604051630d90837360e01b81526001600160a01b0387811660048301526001600160801b0385166024830152600160401b90920490911690630d90837390604401600060405180830381600087803b158015610a8a57600080fd5b505af1158015610a9e573d6000803e3d6000fd5b50506001805467ffffffffffffffff19166001600160401b039490941693909317909255505050505050565b60606000610ad9836002611712565b610ae49060026116d8565b6001600160401b03811115610afb57610afb6117bf565b6040519080825280601f01601f191660200182016040528015610b25576020820181803683370190505b509050600360fc1b81600081518110610b4057610b406117a9565b60200101906001600160f81b031916908160001a905350600f60fb1b81600181518110610b6f57610b6f6117a9565b60200101906001600160f81b031916908160001a9053506000610b93846002611712565b610b9e9060016116d8565b90505b6001811115610c16576f181899199a1a9b1b9c1cb0b131b232b360811b85600f1660108110610bd257610bd26117a9565b1a60f81b828281518110610be857610be86117a9565b60200101906001600160f81b031916908160001a90535060049490941c93610c0f81611761565b9050610ba1565b508315610c655760405162461bcd60e51b815260206004820181905260248201527f537472696e67733a20686578206c656e67746820696e73756666696369656e746044820152606401610322565b9392505050565b60008063e803000060e01b8787878787604051602001610c919695949392919061132f565b60408051808303601f190181529190528051602090910120979650505050505050565b6000807386D9aC0Bab011917f57B9E9607833b4340F9D4F86353fae674610cde60208701876112ad565b6040516001600160e01b031960e084901b16815260ff909116600482015260240160206040518083038186803b158015610d1757600080fd5b505af4158015610d2b573d6000803e3d6000fd5b505050506040513d601f19601f82011682018060405250810190610d4f919061116e565b7386D9aC0Bab011917f57B9E9607833b4340F9D4F863381f760d610d79604088016020890161126c565b6040516001600160e01b031960e084901b16815263ffffffff91909116600482015260240160206040518083038186803b158015610db657600080fd5b505af4158015610dca573d6000803e3d6000fd5b505050506040513d601f19601f82011682018060405250810190610dee919061120a565b60408601357386D9aC0Bab011917f57B9E9607833b4340F9D4F863f83d7d5f610e1d60808a0160608b01611292565b6040516001600160e01b031960e084901b1681526001600160401b03909116600482015260240160206040518083038186803b158015610e5c57600080fd5b505af4158015610e70573d6000803e3d6000fd5b505050506040513d601f19601f82011682018060405250810190610e949190611227565b7386D9aC0Bab011917f57B9E9607833b4340F9D4F863381f760d610ebe60a08b0160808c0161126c565b6040516001600160e01b031960e084901b16815263ffffffff91909116600482015260240160206040518083038186803b158015610efb57600080fd5b505af4158015610f0f573d6000803e3d6000fd5b505050506040513d601f19601f82011682018060405250810190610f33919061120a565b6040516001600160f81b031990951660208601526001600160e01b0319938416602186015260258501929092526001600160c01b031916604584015216604d82015260a085013560518201526071810184905260910160408051808303601f190181529190528051602090910120949350505050565b80356001600160a01b0381168114610fc057600080fd5b919050565b600060c08284031215610fd757600080fd5b50919050565b600060608284031215610fd757600080fd5b600060408284031215610fd757600080fd5b80356001600160801b0381168114610fc057600080fd5b80356001600160401b0381168114610fc057600080fd5b60006020828403121561104157600080fd5b610c6582610fa9565b6000806040838503121561105d57600080fd5b61106683610fa9565b915061107460208401610fa9565b90509250929050565b6000806000806000610120868803121561109657600080fd5b85356001600160401b03808211156110ad57600080fd5b818801915088601f8301126110c157600080fd5b8135818111156110d057600080fd5b8960208260051b85010111156110e557600080fd5b60209283019750955090870135908082111561110057600080fd5b61110c89838a01610fdd565b945061111b8960408a01610fc5565b935061010088013591508082111561113257600080fd5b5061113f88828901610fef565b9150509295509295909350565b60006020828403121561115e57600080fd5b81518015158114610c6557600080fd5b60006020828403121561118057600080fd5b81516001600160f81b031981168114610c6557600080fd5b6000602082840312156111aa57600080fd5b5035919050565b6000602082840312156111c357600080fd5b5051919050565b600080604083850312156111dd57600080fd5b8235915061107460208401610fa9565b6000602082840312156111ff57600080fd5b8135610c65816117d5565b60006020828403121561121c57600080fd5b8151610c65816117d5565b60006020828403121561123957600080fd5b81516001600160c01b031981168114610c6557600080fd5b60006020828403121561126357600080fd5b610c6582611001565b60006020828403121561127e57600080fd5b813563ffffffff81168114610c6557600080fd5b6000602082840312156112a457600080fd5b610c6582611018565b6000602082840312156112bf57600080fd5b813560ff81168114610c6557600080fd5b81835260006001600160fb1b038311156112e957600080fd5b8260051b8083602087013760009401602001938452509192915050565b81835281816020850137506000828201602090810191909152601f909101601f19169091010190565b6001600160e01b0319871681528486600483013784810160048101859052600090838560248301376000930160240192835250909695505050505050565b8183823760009101908152919050565b7f416363657373436f6e74726f6c3a206163636f756e74200000000000000000008152600083516113b5816017850160208801611731565b7001034b99036b4b9b9b4b733903937b6329607d1b60179184019182015283516113e6816028840160208801611731565b01602801949350505050565b60208082528181018390526000906040808401600586901b8501820187855b888110156114eb57878303603f190184528135368b9003607e1901811261143757600080fd5b8a0160806001600160a01b0361144c83610fa9565b16855261145a888301611018565b6001600160401b038082168a8801526001600160801b0361147c8a8601611001565b16898801526060915081840135601e1985360301811261149b57600080fd5b84018035828111156114ac57600080fd5b8036038613156114bb57600080fd5b84848a01526114cf858a01828e8501611306565b998c019998505050948901945050506001919091019050611411565b509098975050505050505050565b8281526040602082015260008235601e1984360301811261151957600080fd5b830180356001600160401b038082111561153257600080fd5b8160051b360386131561154457600080fd5b60408086015261155b6080860183602086016112d0565b92508061156a60208801611018565b1660608601525050809150509392505050565b8581528460208201528360408201526080606082015260006115a36080830184866112d0565b979650505050505050565b60208152600082518060208401526115cd816040850160208701611731565b601f01601f19169190910160400192915050565b6000808335601e198436030181126115f857600080fd5b8301803591506001600160401b0382111561161257600080fd5b6020019150600581901b360382131561162a57600080fd5b9250929050565b6000808335601e1984360301811261164857600080fd5b8301803591506001600160401b0382111561166257600080fd5b60200191503681900382131561162a57600080fd5b60008235607e1983360301811261168d57600080fd5b9190910192915050565b60008235605e1983360301811261168d57600080fd5b60006001600160801b038083168185168083038211156116cf576116cf611793565b01949350505050565b600082198211156116eb576116eb611793565b500190565b60006001600160401b038083168185168083038211156116cf576116cf611793565b600081600019048311821515161561172c5761172c611793565b500290565b60005b8381101561174c578181015183820152602001611734565b8381111561175b576000848401525b50505050565b60008161177057611770611793565b506000190190565b600060001982141561178c5761178c611793565b5060010190565b634e487b7160e01b600052601160045260246000fd5b634e487b7160e01b600052603260045260246000fd5b634e487b7160e01b600052604160045260246000fd5b6001600160e01b0319811681146117eb57600080fd5b5056fea264697066735822122066fa0843ee7e6b4518c8f5e3eebca25abd21e6c3549d9bbe526badec7f1106f164736f6c63430008060033",
  "deployedBytecode": "0x608060405234801561001057600080fd5b50600436106100ea5760003560e01c8063a217fddf1161008c578063affed0e011610066578063affed0e0146101fa578063c7e6736014610225578063d547741f1461022e578063f148bf101461024157600080fd5b8063a217fddf146101a0578063a2d6c6e5146101a8578063af41c33e146101cf57600080fd5b806336568abe116100c857806336568abe1461015d578063485cc9551461017057806349bee5741461018357806391d148541461018d57600080fd5b806301ffc9a7146100ef578063248a9ca3146101175780632f2ff15d14610148575b600080fd5b6101026100fd3660046111ed565b610254565b60405190151581526020015b60405180910390f35b61013a610125366004611198565b60009081526020819052604090206001015490565b60405190815260200161010e565b61015b6101563660046111ca565b61028b565b005b61015b61016b3660046111ca565b6102b6565b61015b61017e36600461104a565b610339565b61013a620186a081565b61010261019b3660046111ca565b6103a3565b61013a600081565b61013a7f32e4cdbcd9c00d473129ed98a14e66b6f3434febcbfd293f5af182c102b315f781565b6002546101e2906001600160a01b031681565b6040516001600160a01b03909116815260200161010e565b60015461020d906001600160401b031681565b6040516001600160401b03909116815260200161010e565b61013a61ea6081565b61015b61023c3660046111ca565b6103cc565b61015b61024f36600461107d565b6103f2565b60006001600160e01b03198216637965db0b60e01b148061028557506301ffc9a760e01b6001600160e01b03198316145b92915050565b6000828152602081905260409020600101546102a781336104d3565b6102b18383610537565b505050565b6001600160a01b038116331461032b5760405162461bcd60e51b815260206004820152602f60248201527f416363657373436f6e74726f6c3a2063616e206f6e6c792072656e6f756e636560448201526e103937b632b9903337b91039b2b63360891b60648201526084015b60405180910390fd5b61033582826105bb565b5050565b600061034581336104d3565b61036f7f32e4cdbcd9c00d473129ed98a14e66b6f3434febcbfd293f5af182c102b315f78461028b565b6001805468010000000000000000600160e01b031916600160401b6001600160a01b038516021790556102b16000336102b6565b6000918252602082815260408084206001600160a01b0393909316845291905290205460ff1690565b6000828152602081905260409020600101546103e881336104d3565b6102b183836105bb565b600085856040516020016104079291906113f2565b60405160208183030381529060405280519060200120905061044181858585600260009054906101000a90046001600160a01b0316610620565b61ea60610451620186a087611712565b61045b91906116d8565b5a10156104c05760405162461bcd60e51b815260206004820152602d60248201527f696e73756666696369656e742067617320666f722064656c6976657279206f6660448201526c20616c6c206d6573736167657360981b6064820152608401610322565b6104cb3387876107e0565b505050505050565b6104dd82826103a3565b610335576104f5816001600160a01b03166014610aca565b610500836020610aca565b60405160200161051192919061137d565b60408051601f198184030181529082905262461bcd60e51b8252610322916004016115ae565b61054182826103a3565b610335576000828152602081815260408083206001600160a01b03851684529091529020805460ff191660011790556105773390565b6001600160a01b0316816001600160a01b0316837f2f8788117e7eff1d82e926ec794901d17c78024a50270940304540a733656f0d60405160405180910390a45050565b6105c582826103a3565b15610335576000828152602081815260408083206001600160a01b0385168085529252808320805460ff1916905551339285917ff6391f5c32d9c69d2a47ea670b442974b53935d1edc7fd64eb21e047a839171b9190a45050565b600061064261062f8680611631565b8861063d60208a018a611631565b610c6c565b9050600073__$8357ba4d74636aadcb00db704e14ab264e$__63407529498361066e60408a018a611697565b3561067c60408b018b611697565b6020013561068d60408c018c611697565b61069b9060408101906115e1565b6040518663ffffffff1660e01b81526004016106bb95949392919061157d565b60206040518083038186803b1580156106d357600080fd5b505af41580156106e7573d6000803e3d6000fd5b505050506040513d601f19601f8201168201806040525081019061070b91906111b1565b905060006107198683610cb4565b604051631693464f60e11b81529091506001600160a01b03851690632d268c9e9061074a90849089906004016114f9565b60206040518083038186803b15801561076257600080fd5b505afa158015610776573d6000803e3d6000fd5b505050506040513d601f19601f8201168201806040525081019061079a919061114c565b6107d65760405162461bcd60e51b815260206004820152600d60248201526c24b73b30b634b210383937b7b360991b6044820152606401610322565b5050505050505050565b6001546000906001600160401b0316815b83811015610a2b576108048260016116f0565b6001600160401b031685858381811061081f5761081f6117a9565b90506020028101906108319190611677565b610842906040810190602001611292565b6001600160401b0316146108885760405162461bcd60e51b815260206004820152600d60248201526c696e76616c6964206e6f6e636560981b6044820152606401610322565b6108938260016116f0565b915060008585838181106108a9576108a96117a9565b90506020028101906108bb9190611677565b6108c990602081019061102f565b6001600160a01b0316620186a060008888868181106108ea576108ea6117a9565b90506020028101906108fc9190611677565b61090a906060810190611631565b60405161091892919061136d565b600060405180830381858888f193505050503d8060008114610956576040519150601f19603f3d011682016040523d82523d6000602084013e61095b565b606091505b50509050858583818110610971576109716117a9565b90506020028101906109839190611677565b610994906060810190604001611251565b61099e90856116ad565b93507f504b093d860dc827c72a879d052fd8ac6b4c2af80c5f3a634654f172690bf10a8686848181106109d3576109d36117a9565b90506020028101906109e59190611677565b6109f6906040810190602001611292565b604080516001600160401b03909216825283151560208301520160405180910390a15080610a2381611778565b9150506107f1565b50600154604051630d90837360e01b81526001600160a01b0387811660048301526001600160801b0385166024830152600160401b90920490911690630d90837390604401600060405180830381600087803b158015610a8a57600080fd5b505af1158015610a9e573d6000803e3d6000fd5b50506001805467ffffffffffffffff19166001600160401b039490941693909317909255505050505050565b60606000610ad9836002611712565b610ae49060026116d8565b6001600160401b03811115610afb57610afb6117bf565b6040519080825280601f01601f191660200182016040528015610b25576020820181803683370190505b509050600360fc1b81600081518110610b4057610b406117a9565b60200101906001600160f81b031916908160001a905350600f60fb1b81600181518110610b6f57610b6f6117a9565b60200101906001600160f81b031916908160001a9053506000610b93846002611712565b610b9e9060016116d8565b90505b6001811115610c16576f181899199a1a9b1b9c1cb0b131b232b360811b85600f1660108110610bd257610bd26117a9565b1a60f81b828281518110610be857610be86117a9565b60200101906001600160f81b031916908160001a90535060049490941c93610c0f81611761565b9050610ba1565b508315610c655760405162461bcd60e51b815260206004820181905260248201527f537472696e67733a20686578206c656e67746820696e73756666696369656e746044820152606401610322565b9392505050565b60008063e803000060e01b8787878787604051602001610c919695949392919061132f565b60408051808303601f190181529190528051602090910120979650505050505050565b60008073__$276cc14ce47cc15bfe88c6e1cbd14dec7e$__6353fae674610cde60208701876112ad565b6040516001600160e01b031960e084901b16815260ff909116600482015260240160206040518083038186803b158015610d1757600080fd5b505af4158015610d2b573d6000803e3d6000fd5b505050506040513d601f19601f82011682018060405250810190610d4f919061116e565b73__$276cc14ce47cc15bfe88c6e1cbd14dec7e$__63381f760d610d79604088016020890161126c565b6040516001600160e01b031960e084901b16815263ffffffff91909116600482015260240160206040518083038186803b158015610db657600080fd5b505af4158015610dca573d6000803e3d6000fd5b505050506040513d601f19601f82011682018060405250810190610dee919061120a565b604086013573__$276cc14ce47cc15bfe88c6e1cbd14dec7e$__63f83d7d5f610e1d60808a0160608b01611292565b6040516001600160e01b031960e084901b1681526001600160401b03909116600482015260240160206040518083038186803b158015610e5c57600080fd5b505af4158015610e70573d6000803e3d6000fd5b505050506040513d601f19601f82011682018060405250810190610e949190611227565b73__$276cc14ce47cc15bfe88c6e1cbd14dec7e$__63381f760d610ebe60a08b0160808c0161126c565b6040516001600160e01b031960e084901b16815263ffffffff91909116600482015260240160206040518083038186803b158015610efb57600080fd5b505af4158015610f0f573d6000803e3d6000fd5b505050506040513d601f19601f82011682018060405250810190610f33919061120a565b6040516001600160f81b031990951660208601526001600160e01b0319938416602186015260258501929092526001600160c01b031916604584015216604d82015260a085013560518201526071810184905260910160408051808303601f190181529190528051602090910120949350505050565b80356001600160a01b0381168114610fc057600080fd5b919050565b600060c08284031215610fd757600080fd5b50919050565b600060608284031215610fd757600080fd5b600060408284031215610fd757600080fd5b80356001600160801b0381168114610fc057600080fd5b80356001600160401b0381168114610fc057600080fd5b60006020828403121561104157600080fd5b610c6582610fa9565b6000806040838503121561105d57600080fd5b61106683610fa9565b915061107460208401610fa9565b90509250929050565b6000806000806000610120868803121561109657600080fd5b85356001600160401b03808211156110ad57600080fd5b818801915088601f8301126110c157600080fd5b8135818111156110d057600080fd5b8960208260051b85010111156110e557600080fd5b60209283019750955090870135908082111561110057600080fd5b61110c89838a01610fdd565b945061111b8960408a01610fc5565b935061010088013591508082111561113257600080fd5b5061113f88828901610fef565b9150509295509295909350565b60006020828403121561115e57600080fd5b81518015158114610c6557600080fd5b60006020828403121561118057600080fd5b81516001600160f81b031981168114610c6557600080fd5b6000602082840312156111aa57600080fd5b5035919050565b6000602082840312156111c357600080fd5b5051919050565b600080604083850312156111dd57600080fd5b8235915061107460208401610fa9565b6000602082840312156111ff57600080fd5b8135610c65816117d5565b60006020828403121561121c57600080fd5b8151610c65816117d5565b60006020828403121561123957600080fd5b81516001600160c01b031981168114610c6557600080fd5b60006020828403121561126357600080fd5b610c6582611001565b60006020828403121561127e57600080fd5b813563ffffffff81168114610c6557600080fd5b6000602082840312156112a457600080fd5b610c6582611018565b6000602082840312156112bf57600080fd5b813560ff81168114610c6557600080fd5b81835260006001600160fb1b038311156112e957600080fd5b8260051b8083602087013760009401602001938452509192915050565b81835281816020850137506000828201602090810191909152601f909101601f19169091010190565b6001600160e01b0319871681528486600483013784810160048101859052600090838560248301376000930160240192835250909695505050505050565b8183823760009101908152919050565b7f416363657373436f6e74726f6c3a206163636f756e74200000000000000000008152600083516113b5816017850160208801611731565b7001034b99036b4b9b9b4b733903937b6329607d1b60179184019182015283516113e6816028840160208801611731565b01602801949350505050565b60208082528181018390526000906040808401600586901b8501820187855b888110156114eb57878303603f190184528135368b9003607e1901811261143757600080fd5b8a0160806001600160a01b0361144c83610fa9565b16855261145a888301611018565b6001600160401b038082168a8801526001600160801b0361147c8a8601611001565b16898801526060915081840135601e1985360301811261149b57600080fd5b84018035828111156114ac57600080fd5b8036038613156114bb57600080fd5b84848a01526114cf858a01828e8501611306565b998c019998505050948901945050506001919091019050611411565b509098975050505050505050565b8281526040602082015260008235601e1984360301811261151957600080fd5b830180356001600160401b038082111561153257600080fd5b8160051b360386131561154457600080fd5b60408086015261155b6080860183602086016112d0565b92508061156a60208801611018565b1660608601525050809150509392505050565b8581528460208201528360408201526080606082015260006115a36080830184866112d0565b979650505050505050565b60208152600082518060208401526115cd816040850160208701611731565b601f01601f19169190910160400192915050565b6000808335601e198436030181126115f857600080fd5b8301803591506001600160401b0382111561161257600080fd5b6020019150600581901b360382131561162a57600080fd5b9250929050565b6000808335601e1984360301811261164857600080fd5b8301803591506001600160401b0382111561166257600080fd5b60200191503681900382131561162a57600080fd5b60008235607e1983360301811261168d57600080fd5b9190910192915050565b60008235605e1983360301811261168d57600080fd5b60006001600160801b038083168185168083038211156116cf576116cf611793565b01949350505050565b600082198211156116eb576116eb611793565b500190565b60006001600160401b038083168185168083038211156116cf576116cf611793565b600081600019048311821515161561172c5761172c611793565b500290565b60005b8381101561174c578181015183820152602001611734565b8381111561175b576000848401525b50505050565b60008161177057611770611793565b506000190190565b600060001982141561178c5761178c611793565b5060010190565b634e487b7160e01b600052601160045260246000fd5b634e487b7160e01b600052603260045260246000fd5b634e487b7160e01b600052604160045260246000fd5b6001600160e01b0319811681146117eb57600080fd5b5056fea264697066735822122066fa0843ee7e6b4518c8f5e3eebca25abd21e6c3549d9bbe526badec7f1106f164736f6c63430008060033",
  "libraries": {
    "MerkleProof": "0xD184c103F7acc340847eEE82a0B909E3358bc28d",
    "ScaleCodec": "0x86D9aC0Bab011917f57B9E9607833b4340F9D4F8",
    "ParachainLightClient": "0x2ffA5ecdBe006d30397c7636d3e015EEE251369F"
  },
  "devdoc": {
    "kind": "dev",
    "methods": {
      "getRoleAdmin(bytes32)": {
        "details": "Returns the admin role that controls `role`. See {grantRole} and {revokeRole}. To change a role's admin, use {_setRoleAdmin}."
      },
      "grantRole(bytes32,address)": {
        "details": "Grants `role` to `account`. If `account` had not been already granted `role`, emits a {RoleGranted} event. Requirements: - the caller must have ``role``'s admin role."
      },
      "hasRole(bytes32,address)": {
        "details": "Returns `true` if `account` has been granted `role`."
      },
      "renounceRole(bytes32,address)": {
        "details": "Revokes `role` from the calling account. Roles are often managed via {grantRole} and {revokeRole}: this function's purpose is to provide a mechanism for accounts to lose their privileges if they are compromised (such as when a trusted device is misplaced). If the calling account had been granted `role`, emits a {RoleRevoked} event. Requirements: - the caller must be `account`."
      },
      "revokeRole(bytes32,address)": {
        "details": "Revokes `role` from `account`. If `account` had been granted `role`, emits a {RoleRevoked} event. Requirements: - the caller must have ``role``'s admin role."
      },
      "supportsInterface(bytes4)": {
        "details": "See {IERC165-supportsInterface}."
      }
    },
    "version": 1
  },
  "userdoc": {
    "kind": "user",
    "methods": {},
    "version": 1
  },
  "storageLayout": {
    "storage": [
      {
        "astId": 62,
        "contract": "@snowfork/snowbridge-contracts/contracts/IncentivizedInboundChannel.sol:IncentivizedInboundChannel",
        "label": "_roles",
        "offset": 0,
        "slot": "0",
        "type": "t_mapping(t_bytes32,t_struct(RoleData)57_storage)"
      },
      {
        "astId": 6744,
        "contract": "@snowfork/snowbridge-contracts/contracts/IncentivizedInboundChannel.sol:IncentivizedInboundChannel",
        "label": "nonce",
        "offset": 0,
        "slot": "1",
        "type": "t_uint64"
      },
      {
        "astId": 6773,
        "contract": "@snowfork/snowbridge-contracts/contracts/IncentivizedInboundChannel.sol:IncentivizedInboundChannel",
        "label": "rewardSource",
        "offset": 8,
        "slot": "1",
        "type": "t_contract(RewardSource)7369"
      },
      {
        "astId": 6776,
        "contract": "@snowfork/snowbridge-contracts/contracts/IncentivizedInboundChannel.sol:IncentivizedInboundChannel",
        "label": "beefyLightClient",
        "offset": 0,
        "slot": "2",
        "type": "t_contract(BeefyLightClient)5680"
      }
    ],
    "types": {
      "t_address": {
        "encoding": "inplace",
        "label": "address",
        "numberOfBytes": "20"
      },
      "t_bool": {
        "encoding": "inplace",
        "label": "bool",
        "numberOfBytes": "1"
      },
      "t_bytes32": {
        "encoding": "inplace",
        "label": "bytes32",
        "numberOfBytes": "32"
      },
      "t_contract(BeefyLightClient)5680": {
        "encoding": "inplace",
        "label": "contract BeefyLightClient",
        "numberOfBytes": "20"
      },
      "t_contract(RewardSource)7369": {
        "encoding": "inplace",
        "label": "contract RewardSource",
        "numberOfBytes": "20"
      },
      "t_mapping(t_address,t_bool)": {
        "encoding": "mapping",
        "key": "t_address",
        "label": "mapping(address => bool)",
        "numberOfBytes": "32",
        "value": "t_bool"
      },
      "t_mapping(t_bytes32,t_struct(RoleData)57_storage)": {
        "encoding": "mapping",
        "key": "t_bytes32",
        "label": "mapping(bytes32 => struct AccessControl.RoleData)",
        "numberOfBytes": "32",
        "value": "t_struct(RoleData)57_storage"
      },
      "t_struct(RoleData)57_storage": {
        "encoding": "inplace",
        "label": "struct AccessControl.RoleData",
        "members": [
          {
            "astId": 54,
            "contract": "@snowfork/snowbridge-contracts/contracts/IncentivizedInboundChannel.sol:IncentivizedInboundChannel",
            "label": "members",
            "offset": 0,
            "slot": "0",
            "type": "t_mapping(t_address,t_bool)"
          },
          {
            "astId": 56,
            "contract": "@snowfork/snowbridge-contracts/contracts/IncentivizedInboundChannel.sol:IncentivizedInboundChannel",
            "label": "adminRole",
            "offset": 0,
            "slot": "1",
            "type": "t_bytes32"
          }
        ],
        "numberOfBytes": "64"
      },
      "t_uint64": {
        "encoding": "inplace",
        "label": "uint64",
        "numberOfBytes": "8"
      }
    }
  }
}